:100000000C9466050C948E050C948E050C948E054C
:100010000C948E050C948E050C948E050C948E0514
:100020000C948E050C948E050C948E050C948E0504
:100030000C948E050C948E050C948E050C948E05F4
:100040000C945F190C948E050C942D190C940719BF
:100050000C948E050C948E050C948E050C948E05D4
:100060000C94A9190C948E05CDCCCC3D0AD7233C19
:1000700017B7D13877CC2B329595E6241FB14F0AAC
:100080000000803FCDCCCC3D6F12833A95BFD63374
:100090007D1D9026B3CE010C000020410000C84217
:1000A00000401C4620BCBE4CCA1B0E5AAEC59D74F7
:1000B000000103070F1F3F7F0080C0E0F0F8FCFE47
:1000C00000000000003E5B4F5B3E3E6B4F6B3E1CF2
:1000D0003E7C3E1C183C7E3C181C577D571C1C5E09
:1000E0007F5E1C00183C1800FFE7C3E7FF001824E0
:1000F0001800FFE7DBE7FF30483A060E262979298A
:1001000026407F050507407F05253F5A3CE73C5ABE
:100110007F3E1C1C08081C1C3E7F14227F22145F9B
:100120005F005F5F06097F017F006689956A6060F6
:1001300060606094A2FFA29408047E040810207EF0
:10014000201008082A1C08081C2A08081E10101075
:10015000100C1E0C1E0C30383E3830060E3E0E06BB
:10016000000000000000005F00000007000700140E
:100170007F147F14242A7F2A1223130864623649CD
:100180005620500008070300001C224100004122B5
:100190001C002A1C7F1C2A08083E080800807030BA
:1001A0000008080808080000606000201008040229
:1001B0003E5149453E00427F40007249494946212F
:1001C00041494D331814127F1027454545393C4AA3
:1001D00049493141211109073649494936464949BA
:1001E000291E000014000000403400000008142202
:1001F0004114141414140041221408020159090670
:100200003E415D594E7C1211127C7F494949363E70
:10021000414141227F4141413E7F494949417F0956
:100220000909013E414151737F0808087F00417F61
:1002300041002040413F017F081422417F4040405F
:10024000407F021C027F7F0408107F3E4141413EF7
:100250007F090909063E4151215E7F091929462679
:100260004949493203017F01033F4040403F1F207D
:1002700040201F3F4038403F631408146303047854
:1002800004036159494D43007F4141410204081074
:1002900020004141417F04020102044040404040AF
:1002A000000307080020545478407F28444438381D
:1002B00044444428384444287F385454541800088F
:1002C0007E090218A4A49C787F0804047800447D69
:1002D00040002040403D007F1028440000417F4006
:1002E000007C047804787C0804047838444444385A
:1002F000FC1824241818242418FC7C08040408483A
:100300005454542404043F44243C4040207C1C208A
:1003100040201C3C4030403C44281028444C9090E5
:10032000907C4464544C440008364100000077003F
:1003300000004136080002010204023C2623263C4C
:100340001EA1A161123A4040207A385454555921D7
:1003500055557941225454784221555478402054BF
:100360005579400C1E52721239555555593954540D
:10037000545939555454580000457C410002457D7C
:10038000420001457C407D1211127DF0282528F0A5
:100390007C545545002054547C547C0A097F4932D2
:1003A000494949323A4444443A324A4848303A4149
:1003B00041217A3A42402078009DA0A07D3D4242F2
:1003C000423D3D4040403D3C24FF2424487E49437B
:1003D000662B2FFC2F2BFF0929F620C0887E0903EE
:1003E00020545479410000447D413048484A323815
:1003F0004040227A007A0A0A727D0D19317D262941
:10040000292F28262929292630484D402038080838
:10041000080808080808382F10C8ACBA2F1028346C
:10042000FA00007B000008142A142222142A14085F
:100430005500550055AA55AA55AAFF55FF55FF006E
:100440000000FF00101010FF00141414FF00101023
:10045000FF00FF1010F010F0141414FC001414F737
:1004600000FF0000FF00FF1414F404FC1414171024
:100470001F10101F101F1414141F00101010F00074
:100480000000001F101010101F10101010F01000AE
:100490000000FF101010101010101010FF100000BE
:1004A00000FF140000FF00FF00001F10170000FCF9
:1004B00004F414141710171414F404F40000FF00CB
:1004C000F714141414141414F700F7141414171454
:1004D00010101F101F141414F4141010F010F0005A
:1004E000001F101F0000001F14000000FC1400007B
:1004F000F010F01010FF10FF141414FF141010105F
:100500001F00000000F010FFFFFFFFFFF0F0F0F011
:10051000F0FFFFFF0000000000FFFF0F0F0F0F0FA5
:100520003844443844FC4A4A4A347E0202060602F1
:100530007E027E0263554941633844443C04407E58
:10054000201E2006027E020299A5E7A5991C2A49D1
:100550002A1C4C7201724C304A4D4D30304878485C
:1005600030BC625A463D3E494949007E0101017E48
:100570002A2A2A2A2A44445F444440514A4440409B
:10058000444A51400000FF0103E080FF00000808DA
:100590006B6B083612362436060F090F060000185A
:1005A000180000001010003040FF0101001F010181
:1005B0001E00191D1712003C3C3C3C0000000000CE
:1005C000DB40A4A62EAF2000A1C8D300408DAED53D
:1005D00080A8000060000000000000000000000093
:1005E000000000E00000000000000000000000002B
:1005F0000001E0000000000000000000000000001A
:1006000001F00000000000000000000000000003F6
:10061000F00000000000000000000000000007F0F3
:100620000000000000000000000000000007F800CB
:100630000000000000000000000000000FF80000B3
:100640000003C0007E000001E0007F0FF800000002
:1006500003C000FE000001E000FFEFF8000000030F
:10066000C000FE000001E000FFFFF800000003C032
:1006700000F00000000F007FFE7FC0000003C000FC
:10068000F00000000F003FFE7FF83FF1FBCFFCFEC3
:10069000F3BC3DEFE01FFE7FFF7FFBFFDFFEFEFFB1
:1006A000BC3DEFE01FC6FFFF7FFBFFDFFEFEFFBC90
:1006B0003DEFE00FE3C7FE787BC3DE1EF0FFBC3DDD
:1006C000EF0007FF87FC787BC3DE1EF0F83C3DEFB0
:1006D0000001FFFFF0007BC3C01EF0F03C3DEF00C7
:1006E00001F37FE03FFBC3CFFEF0F03C3DEF0003A2
:1006F000E33F807FFBC3DFFEF0F03C3DEF0007E708
:100700003C00787BC3DE1EF0F03C3DEF0007FFBEEF
:1007100000787BC3DE1EF0F03C3DEF0007FFFE00DB
:10072000787BC3DE1EF0F03C3DEF000FFFFE007F44
:10073000FBFFDFFEF0F03FFDEFE00FFFFF007FFB70
:10074000FFDFFEF0F03FFDEFE00FF9FF003E79F92B
:10075000CF9EF0F01F3DE7E01FF1FF00000000001A
:10076000000000000000001F80FF007FFFFFFFFF70
:10077000FFFFFFFFFFE01C007F007FFFFFFFFEB4D5
:100780006D888D18E000001F007FFFFFFFFE95AD14
:100790007DB577E000000F007FFFFFFFFEA5AD9D58
:1007A0008D19E0000006007FFFFFFFFEB5ADEDB53F
:1007B0007EE000000000000180000000000000005A
:1007C0000000038000000000000000000007C000DF
:1007D000000000000000000007C000000000000052
:1007E0000000000FC00000000000000000001FE03B
:1007F0000000000000000000001FE00000000000FA
:10080000000000003FE00000000000000000003F8A
:10081000F00000000000000000007FF00000000079
:100820000000001FF87FF0000000000000003FFE05
:100830007FF0000000000000003FFF7FF00000009C
:10084000000000001FFFFBE0000000000000000FA0
:10085000FFF9FFC00000000000000FFFF9FFF800E3
:10086000000000000007FFF1FFFF00000000000093
:1008700003FC73FFFF80000000000001FE3FFFFF4C
:1008800080000000000000FF1E0FFF0000000000BD
:1008900000007FFE1FFC000000000000003FFFFF83
:1008A000F8000000000000000FDFFFE00000000083
:1008B0000000001F19FFC0000000000000003F3CC6
:1008C000FF00000000000000007E7CF80000000037
:1008D000000000007FFE7C0000000000000000FF20
:1008E000FFFC0000000000000000FFFFFE00000011
:1008F0000000000000FFFFFE0000000000000001FB
:10090000FFEFFE0000000000000001FFCFFE00002E
:10091000000000000003FF07FE00000000000000D0
:1009200003FC07FE0000000000000003F003FE00CF
:10093000000000000000018000FE00000000000038
:10094000000000007E000000000000000000003EEB
:10095000000000000000000000000C00000000008B
:1009600000078000FC000003C0000000078001FCBD
:10097000000003C0000000078001FC000003C0006D
:100980000000078001E00000001E00000007800159
:10099000E00000001E007FE3F79FF9FDE7787BDFB2
:1009A000C0FFF7FFBFFDFDFF787BDFC0FFF7FFBF94
:1009B000FDFDFF787BDFC0F0F787BC3DE1FF787B72
:1009C000DE00F0F787BC3DE1F0787BDE0000F787C2
:1009D000803DE1E0787BDE007FF7879FFDE1E078F6
:1009E0007BDE00FFF787BFFDE1E0787BDE00F0F7FC
:1009F00087BC3DE1E0787BDE00F0F787BC3DE1E0BD
:100A0000787BDE00F0F787BC3DE1E0787BDE00FF1D
:100A1000F7FFBFFDE1E07FFBDFC0FFF7FFBFFDE1B8
:100A2000E07FFBDFC07CF3F39F3DE1E03E7BCFC086
:100A30000000000000000000000000FFFFFFFFFFBB
:100A4000FFFFFFFFFFC0FFFFFFFFFD68DB111A3153
:100A5000C0FFFFFFFFFD2B5AFB6AEFC0FFFFFFFF48
:100A6000FD4B5B3B1A33C0FFFFFFFFFD6B5BDB6A97
:100A7000FDC00000000800020100000304070000A0
:100A80000000000000002200FF21000000000025FF
:100A90000028002B0000000000240027002A00048A
:100AA0000404040404040402020202020203030315
:100AB000030303010204081020408001020408100F
:100AC0002001020408102000C81A771F11241FBE3D
:100AD000CFEFD8E0DEBFCDBF11E0A0E0B1E0E6E0AF
:100AE000F6E402C005900D92A83BB107D9F723E0C8
:100AF000A8EBB1E001C01D92A936B207E1F715E0FD
:100B0000C5E6D5E004C02197FE010E94B621C43697
:100B1000D107C9F70E944B1B0C94F6220C940000DD
:100B200090E0FC01ED54F54F24918156954FFC0166
:100B30008491882399F090E0880F991FFC01EB566F
:100B4000F54FA591B491FC01E557F54F859194912E
:100B50008FB7F894EC91E22BEC938FBF0895089532
:100B600008950895AF92BF92CF92DF92EF92FF92D5
:100B70000F931F93CF93DF936C017B018B01040FC5
:100B8000151FEB015E01AE18BF08C017D10759F061
:100B90006991D601ED91FC910190F081E02DC601A3
:100BA0000995892B79F7C501DF91CF911F910F919D
:100BB000FF90EF90DF90CF90BF90AF900895FC0131
:100BC000538D448D252F30E0842F90E0821B930BB2
:100BD000541710F0CF96089501970895FC01918D58
:100BE000828D981761F0A28DAE0FBF2FB11D5D965B
:100BF0008C91928D9F5F9F73928F90E008958FEFFD
:100C00009FEF0895FC01918D828D981731F0828DB0
:100C1000E80FF11D858D90E008958FEF9FEF089507
:100C2000FC01918D228D892F90E0805C9F4F821B6B
:100C300091098F73992708958CE792E00E9410061E
:100C400021E0892B09F420E0822F089580E090E0D4
:100C5000892B29F00E941C0681110C940000089534
:100C6000FC01A48DA80FB92FB11DA35ABF4F2C9121
:100C7000848D90E001968F739927848FA689B78918
:100C80002C93A089B1898C91837080648C93938D0F
:100C9000848D981306C00288F389E02D80818F7DB2
:100CA00080830895EF92FF920F931F93CF93DF936A
:100CB000EC0181E0888F9B8D8C8D98131AC0E88998
:100CC000F989808185FF15C09FB7F894EE89FF8967
:100CD0006083E889F98980818370806480839FBF05
:100CE00081E090E0DF91CF911F910F91FF90EF9005
:100CF0000895F62E0B8D10E00F5F1F4F0F73112715
:100D0000E02E8C8D8E110CC00FB607FCFACFE8894F
:100D1000F989808185FFF5CFCE010E943006F1CFA1
:100D2000EB8DEC0FFD2FF11DE35AFF4FF0829FB7C3
:100D3000F8940B8FEA89FB8980818062CFCFCF93B3
:100D4000DF93EC01888D8823B9F0AA89BB89E889F3
:100D5000F9898C9185FD03C0808186FD0DC00FB699
:100D600007FCF7CF8C9185FFF2CF808185FFEDCF17
:100D7000CE010E943006E9CFDF91CF91089590E037
:100D8000FC01EE58F54F2491FC01ED54F54F3491E0
:100D9000FC01E156F54FE491EE23C9F0222339F02E
:100DA000233001F1A8F4213019F1223029F1F0E0CB
:100DB000EE0FFF1FE557F54FA591B4918FB7F8944B
:100DC000EC91611126C030953E233C938FBF08956E
:100DD0002730A9F02830C9F0243049F780918000ED
:100DE0008F7D03C0809180008F7780938000DFCF5C
:100DF00084B58F7784BDDBCF84B58F7DFBCF8091A9
:100E0000B0008F778093B000D2CF8091B0008F7DFB
:100E1000F9CF3E2BDACF3FB7F89480916D029091D5
:100E20006E02A0916F02B091700226B5A89B05C01A
:100E30002F3F19F00196A11DB11D3FBFBA2FA92F59
:100E4000982F8827BC01CD01620F711D811D911D56
:100E500042E0660F771F881F991F4A95D1F70895C2
:100E60008F929F92AF92BF92CF92DF92EF92FF92BA
:100E70004B015C010E940B076B017C010E940B0778
:100E80006C197D098E099F09683E734081059105A3
:100E9000A8F321E0821A9108A108B10888EEC80ED3
:100EA00083E0D81EE11CF11C81149104A104B1045B
:100EB00029F7FF90EF90DF90CF90BF90AF909F9079
:100EC0008F90089520911E02260F3327331F213261
:100ED0003105ECF420914202FC0190E080E02430E6
:100EE00069F082E00895A0911E022191AC01425068
:100EF0005E4FA40FB52FB11D2C930196861798F362
:100F000080911E02680F60931E0280E0089581E0C8
:100F100008951092420281E08093440210924302AD
:100F200061E082E10E94BF0661E083E10E94BF06AA
:100F3000E9EBF0E080818E7F808380818D7F8083EC
:100F400088E48093B80085E48093BC000895CF9333
:100F5000DF9391E09093FD018823B9F0C091B80030
:100F6000D091BA008091BC008A7B8093BC0060E085
:100F700082E10E94BF0660E083E10E94BF060E94FA
:100F80008907D093BA00C093B800DF91CF9108953C
:100F9000E091770280917602E81730F4F0E0E852B1
:100FA000FE4F808190E008958FEF9FEF089590911C
:100FB0007702809176022FEF3FEF981748F4E92FE0
:100FC000F0E0E852FE4F208130E09F5F909377027F
:100FD000C90108958091760290917702891B990B3F
:100FE0000895CF92DF92EF92FF920F931F93CF93CA
:100FF000DF937C01CB018A0120917B02222389F0BF
:10100000EB016B01C40ED51ECC15DD0569F06991AD
:10101000D701ED91FC910190F081E02DC701099578
:10102000F3CF642F0E946207C801DF91CF911F9117
:101030000F91FF90EF90DF90CF900895CF93DF93C3
:101040001F92CDB7DEB7698320917B022223F9F08E
:1010500020917802203258F021E030E0FC01338307
:10106000228390E080E00F90DF91CF9108958091EE
:101070007902E82FF0E0E854FE4F998190838F5F6A
:10108000809379028093780281E090E0ECCF61E078
:10109000CE0101960E946207F7CFCF92DF92EF92C6
:1010A000FF920F931F93CF93DF93D091780281E04B
:1010B000D13208F09CC0C0917A020E940B076B01EC
:1010C0007C018091420281116CC082E080934202D7
:1010D00081E0809344028FEF809341021092660278
:1010E000D0936502A8EBB1E0E5E4F2E080E0D8132C
:1010F0008DC01092670280916702CC0FC82BC093FD
:10110000670280914302813009F084C0109243024B
:101110000E940B076B017C01809167028093BB00EA
:101120008091F9019091FA01A091FB01B091FC012D
:10113000892B8A2B8B2BA1F00E940B070091F901C0
:101140001091FA012091FB013091FC016C197D098D
:101150008E099F09061717072807390708F442C0A8
:101160008091BC0083FDD8CF85EC8093BC000E94A9
:101170000B076B017C0180914202823009F44CC064
:10118000809141028F3F09F469C080914102803211
:1011900009F466C080914102803309F463C084E0A1
:1011A00026C08091F9019091FA01A091FB01B091C4
:1011B000FC01892B8A2B8B2B09F483CF0E940B0710
:1011C0000091F9011091FA012091FB013091FC018D
:1011D0006C197D098E099F0906171707280739071B
:1011E00008F06FCF8091F8010E94A70785E0109268
:1011F00079021092780210927B02DF91CF911F91B9
:101200000F91FF90EF90DF90CF9008959D91919373
:101210008F5F6DCF85EEA9CF8091F9019091FA0192
:10122000A091FB01B091FC01892B8A2B8B2B09F437
:10123000A2CF0E940B070091F9011091FA012091B1
:10124000FB013091FC016C197D098E099F0906177D
:1012500017072807390708F08ECFC4CF80E0C7CF23
:1012600082E0C5CF83E0C3CF0895FC016370668B35
:101270008481958126813781613039F0633029F08E
:1012800091878087338722870895318720879387C6
:10129000828708952F923F924F925F926F927F9232
:1012A0008F929F92AF92BF92CF92DF92EF92FF9276
:1012B0000F931F93CF93DF93CDB7DEB76A970FB627
:1012C000F894DEBF0FBECDBF9A8F898F7A83698372
:1012D0004A01D22E18870F833701BC2CDC015996A6
:1012E0002D913C915A972115310509F015C1189699
:1012F0008D919C911997681779070CF0D7C11A96B0
:101300008D919C91481759070CF0D0C14C2C512C51
:10131000B6E0CB9E600D711D11247C876B8716167D
:1013200017060CF0C3C1EA2DF0E0FA87E98793E0D5
:10133000EE0FFF1F9A95E1F7F88BEF87CF01840F2F
:10134000951F181619060CF0B1C1A98DBA8D5896C3
:101350008C91811104C0BFEABD1508F4D394A98D06
:10136000BA8DED91FC9111970284F385E02DCD01AA
:101370000995B5E0DB9EC0011124E981FA81FC8367
:10138000EB83312C212C9C0120543F4F388F2F8B25
:101390004A2D50E05E8B4D8BEF89F88DE20DF31DE9
:1013A00044919E828D82D12CC12C69817A81620DFB
:1013B000731D7A8B698B842F90E09C8B8B8BE98DCE
:1013C000FA8DA081B18140FF82C0F1E0BF126FC0F1
:1013D000AF126DC01C96ED91FC912F813885A40150
:1013E0004C0D5D1D69897A89898D9A8D0995EB89E6
:1013F000FC89F595E7954E2F5FEFC51AD50A6D81EB
:101400007E818D899E89680F791F7E836D8398E028
:10141000C916D10481F6AFEF2A1A3A0AEB81FC8192
:10142000E40DF51DFC83EB83F5E02F16310409F084
:10143000B3CF2F81388526153705B9F0A98DBA8D20
:10144000ED91FC91B1E0BB1257C0AB1255C0698160
:101450007A816B5F7F4F0088F189E02D830128E05E
:1014600030E0A401898D9A8D0995A98DBA8DED91F1
:10147000FC9111970688F789E02DCD016A960FB689
:10148000F894DEBF0FBECDBFDF91CF911F910F91BA
:10149000FF90EF90DF90CF90BF90AF909F908F9094
:1014A0007F906F905F904F903F902F9009941E9681
:1014B000ED91FC91EF80F88409851A8592014D81A8
:1014C0005E816B817C81898D9A8D099590CF2F816A
:1014D00038852615370509F48ACF31E0B31207C0E5
:1014E000A31205C01C96ED91FC91930178CF1E9636
:1014F000ED91FC917301E0CF6B857C8564197509D2
:101500000684F785E02D73010F8518899201A401E7
:10151000898D9A8D0995A9CFF901349694913297C6
:1015200045915491D91AB7E0DB9E400D511D11240D
:10153000F901259134913C8B2B8BFA012590349045
:10154000FA013296749031963491398B32966490C8
:101550003196449041E04C1518F04A1508F07FC0D0
:10156000662D062C000C770B7C836B83842D042C5A
:10157000000C990B9E838D83A98DBA8DED91FC9102
:1015800011970284F385E02DCD010995512CD12CC2
:10159000C12CEA2DF0E0FA87E9872B2D30E03C875B
:1015A0002B87A401440D511D47FC5A95588F4F8B32
:1015B00069817A81660D711D67FC7A957E876D87DA
:1015C0007989C71608F051CF2C2D30E04D815E810E
:1015D000420F531FA985BA854A9FC0014B9F900DAA
:1015E0005A9F900D1124FC01E80DF91DF88BEF872F
:1015F000852D612C4F89588D420F531F5E8B4D8B6B
:10160000671408F050C044244394480E877041F496
:10161000C1010196EB89FC89E20DF31DD4901C01F8
:10162000D7FE19C0A98DBA8DED91FC91662D70E0A1
:10163000B1E0BB1219C0AB1217C02D853E85620FF9
:10164000731F0484F585E02D2F8138854D895E89CF
:10165000898D9A8D0995DD0C6394842DD1CF1E82DE
:101660001D821C821B8288CF4B815C81640F751F99
:10167000AB85BC856A9FC0016B9F900D7A9F900DD2
:10168000112469817A81680F791F0684F785E02D1E
:10169000EF80F88409851A859D014F855889898DC9
:1016A0009A8D0995D8CF570CC3948ACF6A960FB6F6
:1016B000F894DEBF0FBECDBFDF91CF911F910F9188
:1016C000FF90EF90DF90CF90BF90AF909F908F9062
:1016D0007F906F905F904F903F902F9008958F92E2
:1016E0009F92AF92CF92EF92FF920F931F93CF935F
:1016F000DF93EC01262F898D9A8D009709F051C058
:101700006A30D1F41D861C868D8948E0849F900143
:1017100011248E859F85820F931F9F878E8781E07E
:1017200090E0DF91CF911F910F91FF90EF90CF90BC
:10173000AF909F908F9008956D3089F3CC88AD88DD
:101740008F898823C1F08C859D8536E0C39E800DEE
:10175000911D1124488559854817590764F44E8511
:101760005F851D861C8638E0A39EC0011124840F6E
:10177000951F9F878E87EA88FB88088919894E857F
:101780005F856C857D85CE010E944A092C898C85F8
:101790009D8546E0249F800D911D11249D878C8797
:1017A000BECF6A3069F41D861C86FC013896E49130
:1017B0002D898E859F85E29F800D911D1124ADCFCF
:1017C0006D3009F4ACCFFC0134963491631708F402
:1017D000A6CF3296E491E61708F4A1CFFC01329629
:1017E00085909490462F431B342F47E0349F800C04
:1017F000911C1124F401329634913196E4913323F3
:10180000A9F1EE2399F1CC88F4013596E491AD88E5
:101810004F89442301F10E2E000CFF0BE30FF11D45
:10182000CE9EA001CF9E500D11246C857D85460F64
:10183000571F68857985641775076CF44E855F8539
:101840001D861C86FC013896E491AE9E400D511D0C
:1018500011245F874E87EA88FB88088919894E859D
:101860005F856C857D85CE010E944A09F40134961E
:10187000E4912C898C859D85E29F800D911D11241A
:101880008DCF6F927F928F929F92AF92BF92CF92A5
:10189000DF92EF92FF920F931F93CF93DF93EC01B0
:1018A0006B015A0139014801E881F9810284F3850D
:1018B000E02D0995E881F9810288F389E02D8701FF
:1018C0009301A501B601CE010995A501480D591D49
:1018D00041505109E881F9810288F389E02D930193
:1018E000B601CE010995E881F9810088F189E02DE2
:1018F0009401A501B601CE010995C60CD71CB6010D
:1019000061507109E881F9810088F189E02D940125
:10191000A501CE010995E881F9810688F789E02DB6
:10192000CE01DF91CF911F910F91FF90EF90DF904B
:10193000CF90BF90AF909F908F907F906F900994C1
:101940006F927F928F929F92AF92BF92CF92DF92CF
:10195000EF92FF920F931F93CF93DF935C01EB0104
:101960006A01490138018701DC01ED91FC916217A0
:10197000730719F5641675062CF0962D872D3A011C
:10198000C92ED82E9601261937092F5F3F4F048C98
:10199000F58DE02DA301BE01C5010995DF91CF9121
:1019A0001F910F91FF90EF90DF90CF90BF90AF907D
:1019B0009F908F907F906F9008954615570591F4F2
:1019C0002617370724F0892D4B01C22FD82F9E01EF
:1019D000281939092F5F3F4F068CF78DE02DA6019E
:1019E000B401DACF0284F385E02D0995D501ED919C
:1019F000FC910488F589E02D83019401A601BE01C4
:101A0000C5010995D501ED91FC910688F789E02D76
:101A1000C501DF91CF911F910F91FF90EF90DF9063
:101A2000CF90BF90AF909F908F907F906F900994D0
:101A3000EF92FF920F931F93DC011A960D911C9168
:101A40001B9718962D913C911997ED91FC9100A050
:101A5000F1A1E02D7B0150E040E070E060E00995ED
:101A60001F910F91FF90EF9008954F925F926F92A8
:101A70007F928F929F92AF92BF92CF92DF92EF921E
:101A8000FF920F931F93CF93DF936C012B015A01A9
:101A900039014801DC01ED91FC910284F385E02DD0
:101AA0000995E201640C751CD601ED91FC91C615F7
:101AB000D7055CF40088F189E02D87019401A50128
:101AC000BE01C60109952196EFCF0688F789E02D62
:101AD000C601DF91CF911F910F91FF90EF90DF90A2
:101AE000CF90BF90AF909F908F907F906F905F90BE
:101AF0004F9009948F929F92AF92BF92CF92DF92B4
:101B0000EF92FF920F931F93CF93DF93EC015B0152
:101B10004A016901E881F9810284F385E02D099584
:101B200095012C0D3D1D21503109E881F981048872
:101B3000F589E02D78018401A401B501CE01099554
:101B4000E881F9810688F789E02DCE01DF91CF91F8
:101B50001F910F91FF90EF90DF90CF90BF90AF90CB
:101B60009F908F9009948F929F92AF92BF92CF9245
:101B7000DF92EF92FF920F931F93CF93DF93EC01CD
:101B80005B014A0169017801E881F9810284F385EA
:101B9000E02D0995C80CD91C860101501109E88176
:101BA000F9810488F589E02D9501A401B501CE01E4
:101BB0000995E881F9810688F789E02DCE01DF914A
:101BC000CF911F910F91FF90EF90DF90CF90BF903A
:101BD000AF909F908F900994EF92FF920F931F9375
:101BE000DC01ED91FC9100A0F1A1E02D09951F9180
:101BF0000F91FF90EF9008950F931F93DC01ED91EB
:101C0000FC91068CF78DE02D09951F910F91089599
:101C10000F931F93DC01ED91FC91048CF58DE02D69
:101C200009951F910F910895DC01ED91FC910084BD
:101C3000F185E02D09943F924F925F926F927F92CF
:101C40008F929F92AF92BF92CF92DF92EF92FF92CC
:101C50000F931F93CF93DF935C017B014A016901CE
:101C6000390187E0680E711C93E0759467949A952A
:101C7000E1F72B01400E511E10E000E0312CD0E0C6
:101C8000C0E0CE0187709927330C892B59F4FE01EF
:101C900083E0F595E7958A95E1F7E00FF11FE80DF0
:101CA000F91D349037FE0AC021E030E0A701B501EC
:101CB0006C0F7D1F85E293E00E94140E2196CC16D6
:101CC000DD06F9F68FEFE81AF80A060D171DE41481
:101CD000F504A9F6DF91CF911F910F91FF90EF903E
:101CE000DF90CF90BF90AF909F908F907F906F903C
:101CF0005F904F903F9008952F923F924F925F9246
:101D00006F927F928F929F92AF92BF92CF92DF920B
:101D1000EF92FF920F931F93CF93DF9300D000D0E9
:101D200000D0CDB7DEB73C016A013E832D83FC8233
:101D3000EB825801A41AB50AB7FE03C0B194A1946E
:101D4000B1088D809E80861A970A97FE03C09194F1
:101D5000819491088A149B045CF0902F812F0D814F
:101D60001E819D838E839C2D8D2D6B01692F782F75
:101D70000C151D055CF09D818E817E836D83692F1E
:101D8000782F902F812F8601C92ED82E1601201A68
:101D9000310A2B012D813E81421A530A57FE03C09E
:101DA000519441945108710137FE03C03FEFE31A8B
:101DB000F30AF594E7948D819E81861797075CF569
:101DC000A1E0B0E0BA83A983C016D1064CF1D301DB
:101DD000ED91FC910484F585E02D2B813C81A801D7
:101DE0006D817E818A149B041CF04D815E81B80157
:101DF000C3010995E418F508F7FE0AC02D813E815C
:101E000089819A81280F391F3E832D83E20CF31CB0
:101E10000F5F1F4FD9CF2FEF3FEF3A832983D4CFE6
:101E200026960FB6F894DEBF0FBECDBFDF91CF91DF
:101E30001F910F91FF90EF90DF90CF90BF90AF90E8
:101E40009F908F907F906F905F904F903F902F90DA
:101E50000895EF92FF920F931F93CF93DF93EC01BE
:101E6000EC80FD806E157F050CF070C057FF04C03C
:101E7000240F351F50E040E08E819F81FA01E20F70
:101E8000F31F8E179F071CF49C01241B350B1216A1
:101E900013060CF05BC0922F842F8695869586954D
:101EA0008E9DD0018F9DB00D11246A0F7B1FAF8DC9
:101EB000B8A1A60FB71F477049F188E0841B482FCF
:101EC000682F70E0FB01E854FF4FE491281708F0F9
:101ED00063C0621B71092FEF30E002C03595279572
:101EE0006A95E2F7E2230130110539F0B0F10230D2
:101EF000110561F58C91E82702C08C91E82BEC93D9
:101F0000941720F12C813D81A20FB31FE92FE41B10
:101F1000E83078F00230110521F58E2F9C919095D4
:101F20009C932C813D81A20FB31F88508830B0F75D
:101F3000E770EE2359F0F0E0E055FF4FE4910130F7
:101F40001105F9F010F10230110519F1DF91CF916F
:101F50001F910F91FF90EF900895E0958C91E823E9
:101F6000CECF81E00115110509F480E081959E2F07
:101F70008C932C813D81A20FB31F98509830C0F7ED
:101F8000D7CF8C91E82BEC93E1CFE0958C91E823AF
:101F9000FACF8C91E827F7CF0130110509F4ADCFC6
:101FA000E0F20230110509F4A5CFAE0DBF1DAECF92
:101FB0000F931F93CF93DF9377FF04C0260F371F34
:101FC00070E060E0DC011496CD91DC91FB01E20F42
:101FD000F31FCE17DF071CF49E01261B370B1216CA
:101FE00013064CF5FA0157FD3796A3E0F595E795F2
:101FF000AA95E1F7EC9FD001ED9FB00DFC9FB00DCD
:1020000011246A0F7B1FDC015F96ED91FC91E60FB6
:10201000F71F4770552781E090E001C0880F4A956F
:10202000EAF7482F0130110559F0A8F02E0F3F1F95
:1020300002301105E1F0DF91CF911F910F910895CA
:102040002E0F3F1FE217F307B1F38191DF011197C4
:10205000842B8C93F7CF80952E0F3F1FE217F30749
:1020600051F39191DF01119798239C93F7CFE217D9
:10207000F30709F38191DF01119784278C93F7CF40
:102080000F931F93FA01DC0156964C9156974230FC
:10209000E9F04330A1F1413061F514964D915C9126
:1020A000DA01AE1BBF0BFD01E21BF30B77FD0BC08A
:1020B000DC0116964D915C916417750724F4AB0111
:1020C000BF010E94D80F1F910F91089514964D9152
:1020D0005C91DA01A61BB70BBD0161507109DC01EF
:1020E00016964D915C91DA01AE1BBF0BFD01E21B10
:1020F000F30B77FDE8CFAF010E94290FE4CF1696CE
:102100004D915C91DA01A61BB70BBD0161507109BD
:10211000CDCF0F931F93FA01DC0156964C91569741
:102120004230A9F0433091F1413019F514964D91A8
:102130005C91DA01AE1BBF0BFD013197F7FD04C0C6
:10214000AB01BF010E94290F1F910F9108951496B2
:102150004D915C91DA01A61BB70BBD01DC0116960F
:102160004D915C91DA01AE1BBF0BFD013197621BF3
:10217000730BF7FDE9CFDC0116964D915C91E417E6
:10218000F50714F7AF010E94D80FDECF16964D91D8
:102190005C91DA01A61BB70BBD01621B730BCECF9E
:1021A000FC0177FD64C080859185681779070CF084
:1021B0005EC057FD5CC082859385481759070CF0B7
:1021C00056C086898230B1F0833029F1813041F4E4
:1021D00084819581841B950BAB01BC016150710911
:1021E0002130310509F108F443C02230310509F4EA
:1021F00063C0089584819581DC01A61BB70BBD01E6
:102200006150710986819781DC01A41BB50BAD017A
:1022100041505109E5CF86819781861B970BBA0102
:10222000AC0141505109DCCFCA0157FD0796A3E02C
:1022300095958795AA95E1F7A481B5818A9F90012C
:102240008B9F300D9A9F300D1124620F731F078CE6
:10225000F0A1E02DE60FF71F4770552721E030E091
:1022600001C0220F4A95EAF78081822B808308956E
:10227000CA0157FD079633E0959587953A95E1F7A2
:10228000A481B5818A9F90018B9F300D9A9F300D5C
:102290001124620F731F078CF0A1E02DE60FF71FCA
:1022A0004770552781E090E001C0880F4A95EAF712
:1022B000809590818923DACFCA0157FD079623E0E4
:1022C000959587952A95E1F7A481B5818A9F90011C
:1022D0008B9F300D9A9F300D1124620F731F078C56
:1022E000F0A1E02DE60FF71F4770552721E030E001
:1022F00001C0220F4A95EAF780818227B7CF08955F
:102300008EBD00000DB407FEFDCF8EB50895EF928F
:10231000FF920F931F93CF93DF937C01C62F809181
:10232000420390914303009709F459C0209146035A
:1023300031E030937B0220937A021092790210925E
:102340007802DC01ED91FC910190F081E02D60E0DC
:1023500009958701EE24E394F12CD1E0C1508091DE
:10236000420390914303CF3F91F1B0E2EB16F104A9
:10237000D8F00E944D088091420390914303209130
:102380004603D0937B0220937A0210927902109236
:102390007802DC01ED91FC910190F081E02D60E08C
:1023A0000995EE24E394F12C80914203909143032C
:1023B000F8016491DC01ED91FC910190F081E02D38
:1023C0000995BFEFEB1AFB0A0F5F1F4FC7CFDF91D5
:1023D000CF911F910F91FF90EF900C944D08E091D9
:1023E0005203F09153039081809158038095892383
:1023F00080838701C15008F438C0F801849120918E
:10240000400330914103232B29F00E9480110F5F7C
:102410001F4FF0CF28E030E040E8E0914E03F0910C
:102420004F0390915603582F5423D9F05081952B88
:102430009083E0915003F0915103908150915703A4
:10244000952B9083E0915003F0915103508190912E
:102450005703909595239083469521503109E9F6CD
:10246000D6CF508190959523E3CFDF91CF911F91E7
:102470000F91FF90EF9008951F93CF93DF93EC019E
:102480008D8D9E8D009721F1162F29A131E030937B
:102490007B0220937A021092790210927802DC017A
:1024A000ED91FC910190F081E02D60E009958D8D1A
:1024B0009E8DDC01ED91FC910190F081E02D612F6A
:1024C00009958D8D9E8DDF91CF911F910C944D08B4
:1024D000ADA5BEA59C918BA9809589238C938B8DEE
:1024E0009C8D892B31F0862FDF91CF911F910C9419
:1024F000801128E030E080E8A9A5BAA599A9462F67
:102500004823C1F04C91942B9C93ABA5BCA59C9106
:102510004AA9942B9C93ABA5BCA54C919AA99095E4
:1025200094239C9386952150310931F7DF91CF9107
:102530001F9108954C9190959423E6CF8CBD9DBD3D
:102540000895DF92EF92FF920F931F93CF93DF9343
:102550008091420390914303892B09F498C0209104
:102560005A0330915B0340915C0350915D0360E03E
:1025700074E284EF90E00E94A51F205131094109C7
:10258000510956954795379527952093B80065E0F2
:1025900086E89AE00E94871160912903615085E2E4
:1025A00093E00E943C1220912B0330912C03C9012F
:1025B000079697FD079633E0959587953A95E1F74D
:1025C0002091290330912A03829F8001839F100D5F
:1025D000929F100D1124C0914403D0914503809126
:1025E0004203909143030C0F1D1F009709F48FC005
:1025F0002091460331E030937B0220937A021092BF
:10260000790210927802DC01ED91FC910190F08149
:10261000E02D60E40995EE24E394F12CDD24D394BD
:1026200080914203909143030C171D0709F446C0A3
:10263000B0E2EB16F104D8F00E944D0880914203FD
:102640009091430320914603D0927B0220937A021B
:102650001092790210927802DC01ED91FC910190C8
:10266000F081E02D60E40995EE24E394F12C809153
:102670004203909143036991DC01ED91FC9101903B
:10268000F081E02D0995BFEFEB1AFB0AC9CF8091CD
:10269000400390914103892B31F080916303909125
:1026A00064030E949E12E0915403F09155039081BF
:1026B0008091590380958923808369CF0E944D08BA
:1026C0008091420390914303892B09F461C02091CA
:1026D0005E0330915F03409160035091610360E0BD
:1026E00074E284EF90E00E94A51F20513109410956
:1026F000510956954795379527952093B800DF9156
:10270000CF911F910F91FF90EF90DF900895E0918E
:102710005203F0915303808190915803892B808359
:102720000C171D0769F289912091400330914103F4
:10273000232B19F00E948011F3CF28E030E040E80D
:10274000E0914E03F0914F0390915603582F54237C
:10275000D9F05081952B9083E0915003F091510373
:10276000908150915703952B9083E0915003F09105
:1027700051035081909157039095952390834695EE
:1027800021503109E9F6CCCF508190959523E3CFC4
:10279000E0915403F0915503808190915903892B66
:1027A0008083ADCF1F93CF93DF93EC01162F8D8DD8
:1027B0009E8D892BB1F12DA93EA94FA958AD60E09E
:1027C00074E284EF90E00E94A51F20513109410975
:1027D000510956954795379527952093B80066EA95
:1027E000111167EACE010E943C128D8D9E8D892BBE
:1027F00041F129AD3AAD4BAD5CAD60E074E284EFE0
:1028000090E00E94A51F20513109410951095695B8
:102810004795379527952093B800DF91CF911F9169
:1028200008958B8D9C8D892B21F08EAD9FAD0E94DC
:102830009E12EFA5F8A990818CA9809589238083A9
:10284000CECFEFA5F8A980819CA9892B8083E5CF05
:10285000089590E080E00895CF93DF93EC018881A4
:102860009981DC01ED91FC910190F081E02D0995B9
:102870002A813B81820F931F9B838A83DF91CF91B3
:102880000895CF93DF93EC0188819981DC01ED916C
:10289000FC910280F381E02D09952A813B81820F12
:1028A000931F9B838A83DF91CF9108958F929F928C
:1028B000AF92BF92CF92DF92EF92FF920F931F934E
:1028C000CF93DF93CDB7DEB766970FB6F894DEBF30
:1028D0000FBECDBF6C018E01095E1F4F78018AE0EB
:1028E000882E912CA12CB12CCB01BA01A501940109
:1028F0000E94A51F942F852F605DF80162938F01C0
:10290000A901692F782F411551056105710561F7FE
:10291000A7014E1B5F0BBF01C6010E9441146696C2
:102920000FB6F894DEBF0FBECDBFDF91CF911F91E0
:102930000F91FF90EF90DF90CF90BF90AF909F905E
:102940008F900895EF92FF920F931F93CF93DF9391
:10295000EC017B0162E20E942C148701F801619175
:102960008F01662391F0E6E5F1E0F280FF2049F067
:10297000329681816813F9CF6CE5CE010E942C1448
:102980006F2DCE010E942C14E9CF62E2CE01DF91BF
:10299000CF911F910F91FF90EF900C942C14FC019C
:1029A0002581222339F0F8E02F0290011124820FB3
:1029B000931F089590E080E0089520912B033091BB
:1029C0002C03C901079697FD079623E095958795F7
:1029D0002A95E1F72091290330912A03829FA001D3
:1029E000839F500D929F500D112470E060E0809104
:1029F0004403909145030C94E6220E94E122FB01DE
:102A000001900020E9F73197AF01461B570BDC011D
:102A1000ED91FC910280F381E02D0994CF93DF9337
:102A2000BC0185E293E00E94FF14EC0167E671E0CF
:102A300085E293E00E94FF148C0F9D1FDF91CF91E0
:102A400008958F929F92AF92BF92CF92DF92EF92B2
:102A5000FF920F931F93CF93DF93CDB7DEB7A1976C
:102A60000FB6F894DEBF0FBECDBF6C01990FEE0814
:102A7000FF08F7FE4BC06DE285E293E00E946F0B0A
:102A80008C0122273327A9012C193D094E095F0922
:102A900019A2CE0181967C019AE0892E912CA12C5D
:102AA000B12CCA01B901A50194010E94A51F605D66
:102AB000F70162937F01211531054105510589F721
:102AC00090E080E0309729F0BF0185E293E00E941A
:102AD000FF14080F191F67E671E085E293E00E947A
:102AE000FF14800F911FA1960FB6F894DEBF0FBEA2
:102AF000CDBFDF91CF911F910F91FF90EF90DF90AD
:102B0000CF90BF90AF909F908F900895A7019601AE
:102B100019A28E010F5D1F4F8AE0C82ED12CE12C27
:102B2000F12CCA01B901A70196010E94A51F605DA1
:102B3000F80162938F01211531054105510589F78F
:102B4000309739F0BF0185E293E00E94FF148C01B9
:102B5000C2CF10E000E0BFCFFB0101900020E9F7F9
:102B60003197AF01461B570B0C9441142F923F92A3
:102B70004F925F926F927F928F929F92AF92BF928D
:102B8000CF92DF92EF92FF920F931F93CF93DF9339
:102B9000CDB7DEB76C970FB6F894DEBF0FBECDBFD2
:102BA0008C011B01DC0114968C9114978F77863071
:102BB00009F474C278F48230B0F0843008F04CC26A
:102BC00012964D915C9113976D917C91C1010E9479
:102BD000411426C28C3069F160F4883009F459C27E
:102BE0008A3009F43FC26AE671E0C1010E94AC1567
:102BF000E5C1803209F4ECC18034A9F76BE5C1016D
:102C00000E942C14F801008111810115110509F4AD
:102C1000DAC1B101C8010E94B615C8010E94CF14E3
:102C20008C01892B09F4CFC16CE2C1010E942C14E4
:102C3000ECCFF801C080D180E280F380A70196013B
:102C4000C701B6010E9443208111CDCF20E030E0C2
:102C5000A901C701B6010E944320882379F0A7018A
:102C60009601C701B6010E94D71F9B01AC01C701A5
:102C7000B6010E944320882309F4B5CF20E030E05C
:102C8000A901C701B6010E94432087FF08C06DE279
:102C9000C1010E942C14F7FAF094F7F8F09420E8A0
:102CA00036E948E15BE4C701B6010E94292187FDAE
:102CB00081C074E1A72EB12C00E210E0188E1F8AAB
:102CC000F501E856FF4F2591359145915491C70183
:102CD000B6010E94292187FD13C0F501E859FF4F75
:102CE0002591359145915491C701B6010E942E213D
:102CF0006B017C012F89388D200F311F388F2F8B6E
:102D00001595079534E0A31AB1088CEFA8168FEF3C
:102D1000B806B1F655245A9420E030E0A901C70165
:102D2000B6010E94292118160CF04BC02CEA35EC94
:102D300047E257E3C701B6010E94432018160CF47E
:102D400040C0A52DB4E0AB02C0011124912C812C10
:102D5000FC01E058FF4F3F019C0128563F4F5901AD
:102D60003FEF531671F1F301E80DF91D659175916F
:102D700085919491A70196010E94292118169CF42F
:102D8000F501E80DF91D2591359145915491C70143
:102D9000B6010E942E216B017C018F89988D801BCA
:102DA000910B988F8F8B159507955A9494E0891AFB
:102DB0009108D6CF00E210E055E0552E188E1F8AFC
:102DC000ABCFC701B6010E9448204B015C012B012B
:102DD0003C0106E080E492E4AFE0B0E0898F9A8F96
:102DE000AB8FBC8F102F01509AE04916510461043B
:102DF0007104C8F0698D7A8D8B8D9C8D2AE030E04E
:102E000040E050E00E94A51F298F3A8F4B8F5C8FC6
:102E1000C301B2012AE030E040E050E00E94A51F6B
:102E200029013A01DFCFC501B4010E9477209B013F
:102E3000AC01C701B6010E94D61F6B017C01698DF0
:102E40007A8D8B8D9C8D0E9477209B01AC01C701F0
:102E5000B6010E942E212B013C010E9448206B01EB
:102E60007C010E9477209B01AC01C301B2010E944A
:102E7000D61F9B01AC010E94D71F0E944820C60E9E
:102E8000D71EE81EF91E898D9A8DAB8DBC8DC81694
:102E9000D906EA06FB06D8F09FEF891A990AA90A13
:102EA000B90AAF89B88DAB2B39F1BAE08B16910412
:102EB000A104B10408F1EF89F88D3196F88FEF8BFA
:102EC000C12CD12C7601812C912C540183942AE0C1
:102ED000422E512C612C712CC701B601A301920125
:102EE0000E94A51F672B682B692B51F4111644F41F
:102EF00069017A011150F0CFC12CD12C7601E7CFB6
:102F0000B501A401C1010E945614112371F14E01B3
:102F1000F1E18F0E911C012F54019AE0492E512CA2
:102F2000612C712C015068F0C701B601A301920118
:102F30000E94A51F605DD4016E934D0169017A0165
:102F4000F1CF812F90E0BC0160957095F501E81BF1
:102F5000F90B31978EE2808344275527461B570B88
:102F60006A0D7B1DC1010E944114EF89F88DEF2B82
:102F700029F165E6C1010E942C140F89188D17FFF5
:102F800007C06DE2C1010E942C1411950195110931
:102F9000FE0177969F018AE0E82EF12CC801B70167
:102FA0000E949B21805D82938B01672BB9F7A90159
:102FB0004E1B5F0BBF01C1010E944114D10112964B
:102FC0008D919C9130C06DE5C1010E942C14F6CF0B
:102FD0006BE7C1010E942C14F801008111810115D9
:102FE0001105D1F0D80116966D917C91C1010E9416
:102FF000A2146AE3C1010E942C14B101C8010E940D
:10300000B615C8010E94CF148C01892B29F06CE2FF
:10301000C1010E942C14E3CF6DE7C1010E942C1462
:10302000F101828193816C960FB6F894DEBF0FBEDA
:10303000CDBFDF91CF911F910F91FF90EF90DF9067
:10304000CF90BF90AF909F908F907F906F905F9048
:103050004F903F902F9008956D917C91C1010E94F7
:10306000A214DECFCD90DD90ED90FC90B701A601CB
:10307000F7FE0BC06DE2C1010E942C1444275527B6
:10308000BA014C195D096E097F09C1010E945614ED
:10309000C7CF4D915D916D917C91F7CF8C916FE68B
:1030A00071E0811102C064E771E0C1010E94AC15BA
:1030B000B7CF85ED8093BC008091F9019091FA0122
:1030C000A091FB01B091FC010796A11DB11D23E069
:1030D000B695A795979587952A95D1F72091BC002D
:1030E00024FD03C01092420208954091F9015091CD
:1030F000FA016091FB017091FC01452B462B472B97
:1031000069F30097A105B10541F025E32A95F1F790
:1031100000000197A109B109E1CF8091F8010C9459
:10312000A707CF92DF92EF92FF920F931F93CF9357
:10313000DF93FC018481982F9F7739F48078806237
:1031400084831182108213821282848185FD0CC0D7
:10315000D0E0C0E0CE01DF91CF911F910F91FF90A1
:10316000EF90DF90CF9008956115710589F37A0192
:103170006B018F01C081D1812097C1F16E817F8168
:103180006C157D0539F36115710529F0C6010E94A2
:10319000ED22892BF9F2CE010E94CF14EC01ECCF85
:1031A000E9012897F701D583C483209789F2D801D4
:1031B0001296ED91FC911397309791F0CE018E1BF2
:1031C0009F0B23E0959587952A95E1F785831396C4
:1031D000DC93CE9312971D821C82DF82CE82BACFFF
:1031E000F801D183C083D383C283F5CFD70114966E
:1031F0002D913C91159712968D919C9108962817C8
:10320000390770F681E0D70118968C93A3CF1F92EF
:103210000F920FB60F9211242F933F934F935F930A
:103220006F937F938F939F93AF93BF93EF93FF938E
:103230008CE792E00E943006FF91EF91BF91AF9131
:103240009F918F917F916F915F914F913F912F91BE
:103250000F900FBE0F901F9018951F920F920FB6F0
:103260000F9211242F938F939F93EF93FF93E091ED
:103270008C02F0918D028081E0919202F091930294
:1032800082FD1BC09081809195028F5F8F7320918A
:103290009602821741F0E0919502F0E0E458FD4F6C
:1032A000958F80939502FF91EF919F918F912F9130
:1032B0000F900FBE0F901F9018958081F4CF1F9232
:1032C0000F920FB60F9211242F933F938F939F93DA
:1032D000AF93BF938091690290916A02A0916B02B3
:1032E000B0916C023091680223E0230F2D3758F51E
:1032F0000196A11DB11D20936802809369029093ED
:103300006A02A0936B02B0936C0280916D0290915F
:103310006E02A0916F02B09170020196A11DB11DC5
:1033200080936D0290936E02A0936F02B09370022F
:10333000BF91AF919F918F913F912F910F900FBEB1
:103340000F901F90189526E8230F0296A11DB11D1E
:10335000D2CF1F920F920FB60F9211242F933F934B
:103360004F935F936F937F938F939F93AF93BF938D
:10337000EF93FF938091B900887F803609F44AC0AB
:10338000F0F5883209F4A7C018F5803109F49BC024
:10339000B8F4882309F4F9C0883009F494C0FF9187
:1033A000EF91BF91AF919F918F917F916F915F91BD
:1033B0004F913F912F910F900FBE0F901F90189536
:1033C000883109F488C0803251F78093410214C0DB
:1033D000803409F49DC040F48033B9F38833F9F6A2
:1033E0008093410285ECB0C0803509F485C08835F2
:1033F00009F496C0883499F60E945918D0CF8839BC
:1034000009F48CC038F5883729F050F4883611F06B
:10341000803729F683E0809342021092400257C021
:10342000883809F47BC0803919F0803809F0B7CFAB
:1034300080914002803208F071C0E091400281E04A
:103440008E0F809340028091BB00F0E0E05EFD4F64
:1034500080833DC0803B39F0E0F4803A09F479C0C4
:10346000883A09F09CCF84E08093420210921F02B8
:1034700010921E02E0917402F091750209958091FC
:103480001E0281110FC081E080931E021092FE0186
:1034900009C0803C09F4A6CF883C09F4A3CF883B3F
:1034A00009F07DCFE0911F0281E08E0F80931F0213
:1034B000F0E0E250FE4F80818093BB0090911F02AC
:1034C00080911E0229C0809167028093BB0085EC29
:1034D0008093BC0064CF909166028091650298173A
:1034E00058F5E091660281E08E0F80936602F0E06D
:1034F000EB5BFD4F8081E9CFE091660281E08E0FAA
:10350000809366028091BB00F0E0EB5BFD4F80830F
:1035100090916602809165029817C8F285E8D8CF2D
:10352000E091660281E08E0F809366028091BB007D
:10353000F0E0EB5BFD4F80838091440281115CCF12
:1035400081E08093430284EA8093BC00109242029F
:1035500026CF85EC8093BC001092420280914002FD
:10356000803230F4E0914002F0E0E05EFD4F1082E6
:103570006091400270E0E0917202F091730280E28B
:1035800092E00995109240020ACF1092410234CF86
:10359000ECE7F2E01382128248EE53E060E070E064
:1035A00044835583668377838AE091E091838083A7
:1035B00085EC90E09587848784EC90E097878687F8
:1035C00080EC90E0918B808B81EC90E0938B828BF0
:1035D00082EC90E0958B848B86EC90E0978B868BC9
:1035E000118E128E138E148EA9E1B3E013961C92E5
:1035F0001E92129714964D935D936D937C9317973B
:103600008CE191E011969C938E93E5E2F3E01382B6
:10361000128220E830E03583248380E490E09783B1
:1036200086833187208793878287168A158614863A
:103630001786168681E0858B848B2FEF3FEF338BC7
:10364000228B318B208B878B108E128E118E8EE207
:1036500091E091838083148E138EB68FA58F10A274
:10366000178E8FEF84A385A386A387A380A780E806
:103670009AE1A6E0B0E085AB96ABA7ABB0AF80EA2D
:1036800096E8A1E0B0E081AF92AFA3AFB4AF80E520
:1036900086AF17AE0895CF93DF93CDB7DEB7C05E88
:1036A000D1090FB6F894DEBF0FBECDBF789484B5B4
:1036B000826084BD84B5816084BD85B5826085BD2E
:1036C00085B5816085BD80916E00816080936E00BC
:1036D00010928100809181008260809381008091AE
:1036E000810081608093810080918000816080935F
:1036F00080008091B10084608093B1008091B0001F
:1037000081608093B00080917A00846080937A0019
:1037100080917A00826080937A0080917A00816043
:1037200080937A0080917A00806880937A0010926A
:10373000C100E0918C02F0918D0282E08083E091E3
:103740008802F09189021082E0918A02F0918B0246
:1037500080E1808310929402E0919002F0919102B6
:1037600086E08083E0918E02F0918F0280818061FB
:103770008083E0918E02F0918F0280818860808347
:10378000E0918E02F0918F02808180688083E091C9
:103790008E02F0918F0280818F7D8083809144031F
:1037A00090914503892B11F10E94DD1420912B0388
:1037B00030912C038091290390912A032132310505
:1037C0000CF05BC1B9016052710977FF02C06F5FF5
:1037D0007F4F759567958357910997FD019600E294
:1037E00010E023E730E042ED55E05AC120912B0371
:1037F00030912C03C901079697FD0796B3E0959584
:103800008795BA95E1F72091290330912A03AC01FD
:10381000429FC001439F900D529F900D11240E9422
:10382000BC219093450380934403892B09F0BCCFBE
:103830000E94DD1481E08093390380933A0381E094
:1038400090E09093380380933703909336038093EE
:1038500035038AE090E090933203809331038EE148
:1038600090E090933403809333038AE791E00E94C1
:103870000E150E94A11260ED77E080E090E00E94BA
:1038800030070E94DD140E94A11283E00E9490057F
:103890004E015FE0850E911C6E0187EDC80ED11CB4
:1038A00044244A9483E0582E612C712C94E6292EEE
:1038B000312C9A8289829C828B82DE82CD82D8864C
:1038C000CF8219868E8580788E8780E480937C00F5
:1038D00080917A00806480937A0080917A0086FDDE
:1038E000FCCF80917800A0907900BA2CA82EC50159
:1038F0000B2C000CAA0BBB0BC352DF4F88839983A0
:10390000AA83BB83CD5DD0402FEF30E0D5010E946C
:10391000AF21A30192010E94861F122F032FE22ED6
:10392000F32E83E00E949005E114F10409F092C2A5
:1039300060E083E00E94BF06AE014F5F5F4F67E823
:1039400071E0CE010A960E949118FC01892B41F08A
:1039500094819078946094834DE851E05183408342
:10396000AE014F5F5F4F64E971E0CE010A960E949D
:103970009118FC01892B81F0948190789A6094834E
:10398000C352DF4F88819981AA81BB81CD5DD04030
:1039900080839183A283B383ECE7F2E0D601119692
:1039A000FC93EE9313961C921E921297B601CE01D1
:1039B0000A960E94B61567E671E08CE792E00E94D5
:1039C000FF140E94DD1481E08093390380933A0351
:1039D00041E050E05093380340933703509336034F
:1039E0004093350310923203109231038AE090E045
:1039F00090933403809333038CE991E00E940E1579
:103A00003092320320923103AAE0B0E0B093340345
:103A1000A0933303C5010E94211510923203109226
:103A20003103E9E1F0E0F0933403E09333038EEAED
:103A300091E00E940E15309232032092310349E149
:103A400050E05093340340933303C7010E94211583
:103A50000E94A11264EF71E080E090E00E943007C4
:103A600080E090E0892B09F424CF0E941C06882373
:103A700009F41FCF0E9400001CCFB90160547109E6
:103A800077FF02C06F5F7F4F7595679582559109EB
:103A900097FD019600E410E022E530E042EB57E0AC
:103AA000959587950E941B0E82E080934703809135
:103AB000420390914303892B09F4DEC08CE3809389
:103AC00046031092770210927602109279021092B9
:103AD00078020E94890780EB95E0909375028093AD
:103AE000740281EB95E0909373028093720280914F
:103AF0004D0387FD1DC00E94900561E080914D033C
:103B00000E94BF0661E070E080E090E00E94300714
:103B100060E080914D030E94BF066AE070E080E0A3
:103B200090E00E94300761E080914D030E94BF0643
:103B30008091420390914303892B09F454C1209151
:103B40005A0330915B0340915C0350915D0360E048
:103B500074E284EF90E00E94A51F205131094109D1
:103B6000510956954795379527952093B80064E0FD
:103B70008EEC95E00E94871160912B03615085E2E5
:103B800093E00E943C1264E08AEC95E00E94871169
:103B90008091470364E1813009F460E185E293E0BC
:103BA0000E943C1264E086EC95E00E9487118FE849
:103BB000809362038091290390912A0380389105B4
:103BC00009F02AC180912B0390912C038034910538
:103BD00009F032C180914703813009F41BC18FEC99
:103BE0008093620312E16AED85E293E00E943C1249
:103BF000612F85E293E00E943C1261E885E293E048
:103C00000E943C126091620385E293E00E943C12A4
:103C100069ED85E293E00E943C128091470361EFD9
:103C2000813009F462E285E293E00E943C1266E092
:103C300080EC95E00E9487118091420390914303AC
:103C4000892B09F4FDC020915E0330915F03409100
:103C500060035091610360E074E284EF90E00E94A1
:103C6000A51F2051310941095109569547953795AE
:103C700027952093B800DCCD80914B030E949005DE
:103C800080914C030E94900580914B03082E000CFC
:103C9000990BFC01E156F54FE491F0E0EE0FFF1FA8
:103CA000E557F54F259134913093530320935203F8
:103CB000FC01ED54F54FE491E093580380914C03DF
:103CC000082E000C990BFC01E156F54FE491F0E051
:103CD000EE0FFF1FE557F54FA591B491B093550333
:103CE000A0935403FC01ED54F54FE491E093590384
:103CF0008C91E82BEC938091400390914103892BA8
:103D000089F11FB7F89480917102811124C0E9EA0A
:103D1000FAE08491EDEBFAE09491E82FF0E0EE0FF9
:103D2000FF1FEB56F54FA591B491EC91E92321F4D7
:103D300061E08AE00E94BF068AE00E9490058CB58F
:103D400080618CBD8CB580648CBD8DE00E94900537
:103D50008BE00E949005809171028F5F80937102C9
:103D60001FBFC5CE809149030E94900580914A03F0
:103D70000E94900580914903082E000C990BFC01CC
:103D8000E156F54FE491F0E0EE0FFF1FE557F54FD8
:103D90002591349130934F0320934E03FC01ED5451
:103DA000F54FE491E093560380914A03082E000CEE
:103DB000990BFC01E156F54FE491F0E0EE0FFF1F87
:103DC000E557F54FA591B491B0935103A0935003DB
:103DD000FC01ED54F54FE491E09357038C91E0958D
:103DE000E823EC9384CE8091400390914103892B8A
:103DF00031F080916303909164030E949E12E091E0
:103E00005403F09155039081809159038095892343
:103E10008083ADCE8FE9E4CE8036910569F4809140
:103E20002B0390912C03409739F480914703813004
:103E300029F08FEA8093620312E0D5CE80E1FACFB9
:103E4000E0915403F0915503808190915903892B9F
:103E50008083EECC9FEFE916F10411F461E069CDA7
:103E6000E5E7FAE08491833031F148F48130C9F01C
:103E70008230E1F0F0E8EF16F10484F759CD873095
:103E800031F1883061F18430A9F78091800080623F
:103E900080938000812F902F90938B0080938A00D5
:103EA0004BCD84B5806884BD17BD46CD84B5806296
:103EB00084BD18BD41CD80918000806880938000D2
:103EC000812F902F909389008093880035CD809129
:103ED000B00080688093B0001093B3002DCD809126
:103EE000B00080628093B0001093B40025CD8EE2C4
:103EF00091E0909326038093250380914403909151
:103F00004503009711F00C9458220895052E97FB55
:103F10001EF400940E949D1F57FD07D00E94A51F0C
:103F200007FC03D04EF40C949D1F5095409530959E
:103F300021953F4F4F4F5F4F089590958095709515
:103F400061957F4F8F4F9F4F0895A1E21A2EAA1BB4
:103F5000BB1BFD010DC0AA1FBB1FEE1FFF1FA21739
:103F6000B307E407F50720F0A21BB30BE40BF50B36
:103F7000661F771F881F991F1A9469F760957095BF
:103F8000809590959B01AC01BD01CF010895A29F42
:103F9000B001B39FC001A39F700D811D1124911D1D
:103FA000B29F700D811D1124911D08955058BB279B
:103FB000AA270E94EE1F0C94EF200E94E12038F007
:103FC0000E94E82020F039F49F3F19F426F40C9465
:103FD000DE200EF4E095E7FB0C94D820E92F0E9438
:103FE000002158F3BA17620773078407950720F07A
:103FF00079F4A6F50C9422210EF4E0950B2EBA2F3D
:10400000A02D0B01B90190010C01CA01A0011124DE
:10401000FF27591B99F0593F50F4503E68F11A168A
:10402000F040A22F232F342F4427585FF3CF46951B
:1040300037952795A795F0405395C9F77EF41F163D
:10404000BA0B620B730B840BBAF09150A1F0FF0F07
:10405000BB1F661F771F881FC2F70EC0BA0F621FF3
:10406000731F841F48F4879577956795B795F795E3
:104070009E3F08F0B0CF9395880F08F09927EE0F78
:104080009795879508950E94B42008F481E00895DB
:104090000E94082188F09F5798F0B92F9927B751AF
:1040A000B0F0E1F0660F771F881F991F1AF0BA95DC
:1040B000C9F714C0B13091F00E942221B1E00895F7
:1040C0000C942221672F782F8827B85F39F0B93FE9
:1040D000CCF3869577956795B395D9F73EF490958F
:1040E0008095709561957F4F8F4F9F4F0895E8940D
:1040F00009C097FB3EF490958095709561957F4F30
:104100008F4F9F4F9923A9F0F92F96E9BB279395DD
:10411000F695879577956795B795F111F8CFFAF4ED
:10412000BB0F11F460FF1BC06F5F7F4F8F4F9F4F1E
:1041300016C0882311F096E911C0772321F09EE87C
:10414000872F762F05C0662371F096E8862F70E0E2
:1041500060E02AF09A95660F771F881FDAF7880FBC
:104160009695879597F90895990F0008550FAA0B12
:10417000E0E8FEEF16161706E807F907C0F012167A
:104180001306E407F50798F0621B730B840B950B7D
:1041900039F40A2661F0232B242B252B21F40895D2
:1041A0000A2609F4A140A6958FEF811D811D08956F
:1041B00097F99F6780E870E060E008959FEF80ECDA
:1041C000089500240A94161617061806090608957D
:1041D00000240A9412161306140605060895092EE3
:1041E0000394000C11F4882352F0BB0F40F4BF2B52
:1041F00011F460FF04C06F5F7F4F8F4F9F4F089592
:1042000057FD9058440F551F59F05F3F71F0479587
:10421000880F97FB991F61F09F3F79F0879508956C
:10422000121613061406551FF2CF4695F1DF08C08B
:10423000161617061806991FF1CF869571056105A8
:1042400008940895E894BB2766277727CB0197F950
:1042500008950E94B42008F48FEF08950E94412130
:104260000C94EF200E94E12038F00E94E82020F01A
:10427000952311F00C94D8200C94DE2011240C947A
:1042800023210E94002170F3959FC1F3950F50E008
:10429000551F629FF001729FBB27F00DB11D639FF8
:1042A000AA27F00DB11DAA1F649F6627B00DA11D9E
:1042B000661F829F2227B00DA11D621F739FB00D44
:1042C000A11D621F839FA00D611D221F749F3327B4
:1042D000A00D611D231F849F600D211D822F762F4D
:1042E0006A2F11249F5750409AF0F1F088234AF02A
:1042F000EE0FFF1FBB1F661F771F881F9150504096
:10430000A9F79E3F510580F00C94D8200C942321EE
:104310005F3FE4F3983ED4F3869577956795B7951C
:10432000F795E7959F5FC1F7FE2B880F911D969536
:10433000879597F90895AA1BBB1B51E107C0AA1FD7
:10434000BB1FA617B70710F0A61BB70B881F991F36
:104350005A95A9F780959095BC01CD0108950E94CA
:10436000C71FB7FF0895821B930B0895EE0FFF1F21
:104370000590F491E02D09940F931F93CF93DF9351
:104380008230910510F482E090E0E0916703F091B3
:10439000680330E020E0B0E0A0E0309799F4211508
:1043A000310509F44AC0281B390B24303105D8F5F2
:1043B0008A819B816115710589F1FB019383828359
:1043C000FE0111C0408151810281138148175907B4
:1043D000E0F04817590799F4109761F012960C9382
:1043E000129713961C933296CF01DF91CF911F91B4
:1043F0000F9108950093670310936803F4CF21157C
:10440000310551F04217530738F0A901DB019A0139
:10441000BD01DF01F801C1CFEF01F9CF909368032F
:1044200080936703CDCFFE01E20FF31F8193919339
:104430002250310939832883D7CF209165033091E9
:104440006603232B41F42091020130910301309344
:10445000660320936503209100013091010121152D
:10446000310541F42DB73EB740910401509105014B
:10447000241B350BE0916503F0916603E217F30707
:10448000A0F42E1B3F0B2817390778F0AC014E5FC4
:104490005F4F2417350748F04E0F5F1F5093660398
:1044A00040936503819391939FCFF0E0E0E09CCF30
:1044B000CF93DF930097E9F0FC01329713821282C9
:1044C000A0916703B0916803ED0130E020E0109700
:1044D000A1F420813181820F931F209165033091D7
:1044E00066032817390709F061C0F0936603E0936B
:1044F0006503DF91CF910895EA01CE17DF07E8F554
:104500004A815B819E0141155105B1F7E901FB83A9
:10451000EA8349915991C40FD51FEC17FD0761F447
:10452000808191810296840F951FE9019983888388
:10453000828193819B838A83F0E0E0E012968D91E3
:104540009C9113970097B9F52D913C911197CD014E
:104550000296820F931F20916503309166032817FE
:10456000390739F6309751F51092680310926703B6
:10457000B0936603A0936503BCCFD383C28340810D
:104580005181840F951FC817D90761F44E5F5F4FA3
:1045900088819981480F591F518340838A819B816B
:1045A000938382832115310509F0B0CFF09368031E
:1045B000E09367039ECFFD01DC01C0CF138212821E
:1045C000D7CF81E090E0F8940C94F622DC0101C092
:1045D0006D9341505040E0F70895FB01DC018D914F
:1045E000019080190110D9F3990B089515E0C5E6E3
:1045F000D5E004C0FE010E94B6212196C636D1073F
:06460000C9F7F894FFCF9A
:10460600000069038000000000005206B205DF05C5
:104616009F061006EE050206000000001E08F107C0
:104626002914AF05EA07D707C807000000006F0B7B
:10463600B20529142814D010AF05140EEC0D080E7F
:10464600FC0D7C0EAF053509D21340108910350DCF
:10465600180DA00C410C2F2F22225C5C6208660C00
:104666006E0A720D7409000D0A006E756C6C00748A
:104676007275650066616C736500496E6963696190
:104686006E646F2E2E2E00746F7069630073656EF4
:10469600736F72007061796C6F61640076616C6F24
:1046A6007220646F2073656E736F723A20004272D7
:0846B600696C686F3A200000F6
:00000001FF
