:100000000C9475000C949D000C949D000C949D0024
:100010000C949D000C949D000C949D000C949D00EC
:100020000C949D000C949D000C949D000C949D00DC
:100030000C949D000C949D000C949D000C949D00CC
:100040000C9445080C949D000C9413080C94ED0737
:100050000C949D000C949D000C949D000C949D00AC
:100060000C949D000C949D00000020410000C842AB
:1000700000401C4620BCBE4CCA1B0E5AAEC59D7427
:10008000CDCCCC3D0AD7233C17B7D13877CC2B3217
:100090009595E6241FB14F0A0000000800020100F8
:1000A0000003040700000000000000000000000042
:1000B000250028002B0000000000240027002A0053
:1000C00004040404040404040202020202020303FE
:1000D0000303030301020408102040800102040806
:1000E0001020010204081020220A11241FBECFEFA5
:1000F000D8E0DEBFCDBF21E0A8E2B1E001C01D9293
:10010000AE3CB207E1F711E0A0E0B1E0E6EFF7E1C5
:1001100002C005900D92A832B107D9F710E0C5E7EB
:10012000D0E004C02197FE010E94EA0BC437D1073A
:10013000C9F70E948F080C94F90B0C940000E7EDAE
:10014000F0E02491E3ECF0E08491882399F090E0D2
:10015000880F991FFC01EA54FF4FA591B491FC014F
:10016000E455FF4F859194918FB7F894EC91E22B71
:10017000EC938FBF0895EBE9F0E02491E7EDF0E018
:100180009491E3ECF0E0E491EE23C9F0222339F0FE
:10019000233001F1A8F4213019F1223029F1F0E0E7
:1001A000EE0FFF1FE455FF4FA591B4912FB7F894C0
:1001B000EC91811126C090959E239C932FBF0895AA
:1001C0002730A9F02830C9F0243049F72091800069
:1001D0002F7D03C0209180002F7720938000DFCFF8
:1001E00024B52F7724BDDBCF24B52F7DFBCF209105
:1001F000B0002F772093B000D2CF2091B0002F7D98
:10020000F9CF9E2BDACF0895AF92BF92CF92DF92B3
:10021000EF92FF920F931F93CF93DF936C017B01BB
:100220008B01040F151FEB015E01AE18BF08C0174C
:10023000D10759F06991D601ED91FC910190F081BF
:10024000E02DC6010995892B79F7C501DF91CF9182
:100250001F910F91FF90EF90DF90CF90BF90AF90E4
:100260000895FC01538D448D252F30E0842F90E0BC
:10027000821B930B541710F0CF96089501970895A1
:10028000FC01918D828D981761F0A28DAE0FBF2F6A
:10029000B11D5D968C91928D9F5F9F73928F90E0C0
:1002A00008958FEF9FEF0895FC01918D828D98172F
:1002B00031F0828DE80FF11D858D90E008958FEF6C
:1002C0009FEF0895FC01918D228D892F90E0805C35
:1002D0009F4F821B91098F739927089581E391E0C5
:1002E0000E94620121E0892B09F420E0822F089509
:1002F00080E090E0892B29F00E946E0181110C941E
:1003000000000895FC01A48DA80FB92FB11DA35AB8
:10031000BF4F2C91848D90E001968F739927848F25
:10032000A689B7892C93A089B1898C918370806448
:100330008C93938D848D981306C00288F389E02DE9
:1003400080818F7D80830895EF92FF920F931F939A
:10035000CF93DF93EC0181E0888F9B8D8C8D981378
:100360001AC0E889F989808185FF15C09FB7F89484
:10037000EE89FF896083E889F989808183708064D0
:1003800080839FBF81E090E0DF91CF911F910F911B
:10039000FF90EF900895F62E0B8D10E00F5F1F4F2A
:1003A0000F731127E02E8C8D8E110CC00FB607FC39
:1003B000FACFE889F989808185FFF5CFCE010E94C7
:1003C0008201F1CFEB8DEC0FFD2FF11DE35AFF4FB2
:1003D000F0829FB7F8940B8FEA89FB898081806255
:1003E000CFCFCF93DF93EC01888D8823B9F0AA8912
:1003F000BB89E889F9898C9185FD03C0808186FDE0
:100400000DC00FB607FCF7CF8C9185FFF2CF80812E
:1004100085FFEDCFCE010E948201E9CFDF91CF9120
:1004200008953FB7F89480912D0190912E01A091ED
:100430002F01B091300126B5A89B05C02F3F19F0C0
:100440000196A11DB11D3FBFBA2FA92F982F882754
:10045000BC01CD01620F711D811D911D42E0660F2F
:10046000771F881F991F4A95D1F7089580339CF014
:100470008A3324F08F3524F08B3724F481E00895FB
:1004800081344CF08B35D4F393ED980F81E09230AA
:10049000B0F380E008958B32B9F7F0CF0F931F933C
:1004A000CF93DF93EC018C85811140C009851A85BB
:1004B0002FB7F8948091290190912A01A0912B01E6
:1004C000B0912C012FBFF80180879187A287B38755
:1004D000D801ED91FC910284F385E02DC8010995C6
:1004E00097FF2AC02FB7F8948091290190912A0193
:1004F000A0912B01B0912C012FBFF80140855185AF
:1005000062857385841B950BA60BB70B44815581BF
:100510006681778184179507A607B707C8F28FEF22
:100520009FEF97FD80E08B8781E08C878B85DF9143
:10053000CF911F910F9108959927F3CF1F93CF93D8
:10054000DF93EC01162F0E944E02811306C01C8619
:1005500081E0DF91CF911F91089580E0FACFCF9392
:10056000DF93EC01CE010E944E028B303CF48930C7
:100570004CF4882349F081E0888710C08D3011F059
:100580008032C9F71C86EECF888581110AC081E0D0
:1005900090E0C15BDF4F9983888380E0DF91CF914A
:1005A000089582E090E0F5CFFC018281938100976D
:1005B000C1F024813581468157812417350740F0E9
:1005C000138212820190F081E02D81E080870895EE
:1005D000A9014F5F5F4F55834483820F931FFC0136
:1005E000608308959F92AF92BF92CF92DF92EF9275
:1005F000FF920F931F93CF93DF9300D000D01F92F1
:10060000CDB7DEB78C010E944E02D82EF8011486B9
:10061000F12CE12C70EFC72EC8010E944E02F801A8
:100620001486D81609F4C1C0811119C0F801E15B24
:10063000FF4F82E090E09183808380E00F900F90E5
:100640000F900F900F90DF91CF911F910F91FF901E
:10065000EF90DF90CF90BF90AF909F9008958C3532
:1006600009F09EC0C8010E944E028823F9F2E2E11F
:10067000F1E0853709F088C0F801148664E0962E11
:10068000B12CA12CC8010E944E02882379F281343A
:100690004CF48053803148F0F801E15BFF4F83E078
:1006A00090E0C9CF8F7D8753F5CF54E0AA0CBB1CD7
:1006B0005A95E1F7A82AF80114869A949110E2CF8E
:1006C000C501985D8115944020F4750123E0F22264
:1006D000A3CFC5019C5D8115944008F5F3E0BF22CE
:1006E000C701982F8827990F990F8A299B29B0E075
:1006F000A0E01196198280389105A105B10598F402
:100700008A835E0123E0A20EB11CF50162915F01B4
:10071000662309F481CFC8010E94D402F6CFC50137
:10072000B0E0A0E0E7CF282F2F7320682A8336E0BF
:10073000B695A795979587953A95D1F7803291050B
:1007400038F4806C8B835E0184E0A80EB11CDDCF91
:10075000282F2F7320682B8326E0969587952A955E
:10076000E1F78031910538F4806E8C835E01E5E01D
:10077000AE0EB11CCACF80688C83CD825E01F6E0DC
:10078000AF0EB11CC2CF32969081992309F484CF69
:100790008913F9CF8181882309F47ECFF80114866B
:1007A000682FC8010E94D40237CF60E0C8010E94C0
:1007B000D402F80182819381892B29F4E15BFF4FF8
:1007C00084E090E038CF81E039CFEF92FF920F9331
:1007D0001F93CF93DF93DC01ED90FC90E7012A811A
:1007E0003B81E881F981E217F30780F4B901DF0169
:1007F000EB014991BE018D010F5F1F4F5C914513C5
:1008000018C0D8014111F4CF309759F4FC0184810C
:100810009581820F931FD70113969C938E93129705
:10082000F901CF01DF91CF911F910F91FF90EF90D0
:100830000895FD014191DF014111FBCFD4CF4F92CB
:100840005F926F927F928F929F92AF92BF92CF9260
:10085000DF92EF92FF920F931F93CF93DF93EC0100
:100860008B0188818B32C9F18D32C1F52196FF242D
:10087000F394888190ED980F9A3018F08E3209F039
:100880004DC160E070E0CB01FE012191A0ED8A2E08
:10089000820E39E0381520F16A3949E97407840776
:1008A00049E1940738F5AAE0B0E09B01AC010E9451
:1008B000730B912CB12CA12C240135014094509440
:1008C00060947094461657066806790698F0680D8D
:1008D000791D8A1D9B1DEF01D7CF2196F12CC9CF21
:1008E000211108C0FF20F1F161307105810550E848
:1008F0009507A0F0E12CEAE08E2E912CA12CB12CD2
:1009000061157105F0E88F079105C0F1A50194010B
:100910000E94C80BCA01B901E394F2CFF801248107
:1009200020782A6024839B01AC0188279927DC0169
:10093000821B930BA40BB50B80839183A283B3839B
:100940008F2DDF91CF911F910F91FF90EF90DF904E
:10095000CF90BF90AF909F908F907F906F905F905F
:100960004F900895F80124812078286024836083C3
:10097000718382839383FF24F394E2CFFE01299154
:1009800030ED320F3A3010F4E394F8CF2E32F1F418
:10099000EF012196FE012196208150EDD52ED20E39
:1009A00029E02D1598F06C3C3CEC73073CE0830784
:1009B000910580F7AAE0B0E09B01AC010E94730BA7
:1009C0006D0D711D811D911DEA94E4CF20812F7D55
:1009D000D0E0C0E0253409F05DC021812D32D9F589
:1009E0003296CC24C394DF01D0E0C0E02E2D0E2C33
:1009F000000C330B4AE0B42EFD01DD9040ED4D0DAF
:100A00004A3008F042C0BC9EA001BD9E500D11248A
:100A1000CD2DDD0CDD0BE097C40FD51FAE01420FCD
:100A2000531F4732510544F3F8018481CC20D1F0A3
:100A300040E050E060E070E8F11003C040E050E0BA
:100A4000BA0180788C60F80184834083518362838B
:100A50007383FC2C75CF2B3219F03196C12CC3CF88
:100A60003296FCCF40E050E060E87FEFF11004C028
:100A700040E050E060E87FE780788C60F801848394
:100A8000408351836283738376CFCC2019F0D19554
:100A9000C195D1092081211141C0CE0DD11DE7FCA6
:100AA000DA950E94540A1C161D0604F5E12CC0FFBD
:100AB0000CC024E0E29EF0011124E859FF4F25917B
:100AC0003591459154910E94B50AD595C795E39407
:100AD000209769F7F1109058F801248120782C6054
:100AE0002483608371838283938345CFD195C1959D
:100AF000D109E12C209771F3C0FF0CC044E0E49EC3
:100B0000F0011124E058FF4F259135914591549102
:100B10000E94B50AD595C795E394ECCFF12C10CF80
:100B2000CF92DF92EF92FF92CF93DF9300D000D06D
:100B30001F92CDB7DEB7FC0184818F778630B9F084
:100B400028F4843088F590E080E013C08A30E9F022
:100B50008C30B9F18830B9F780819181A281B3815D
:100B6000811520E89207A105B10568F702C08081D0
:100B700090E00F900F900F900F900F90DF91CF911A
:100B8000FF90EF90DF90CF90089580819181A281B6
:100B9000B381AC01BD0150586F4F7F4F41155105D6
:100BA0006140710580F6E5CF808191811D82BE0193
:100BB0006F5F7F4F0E941F04CE0101960E94900537
:100BC000D8CFC080D180E280F38020E030E040E0E8
:100BD00057ECC701B6010E94C30B87FDB4CF20E0DC
:100BE0003EEF4FEF56E4C701B6010E944F0A1816B8
:100BF0000CF4A9CFC701B6010E948D0BCB01B9CF70
:100C0000CF93DF93DC01EB01EC81FD818A819B8135
:100C10000896E817F90740F481E08887F0E0E0E003
:100C2000CF01DF91CF9108953897FD83EC83309702
:100C3000B9F31296CD91DC911397209791F0CF01E3
:100C40008C1B9D0B23E0959587952A95E1F78D8365
:100C50001396FC93EE9312971582148217821682D4
:100C6000DFCF1196FC93EE93F3CF0F931F93CF93A7
:100C7000DF938B01EC012097E1F06E817F8160179B
:100C80007107B9F00115110541F06115710529F0E1
:100C9000C8010E94F00B892B61F08D81882339F007
:100CA00028E08202C0011124C80FD91FE4CFD0E090
:100CB000C0E0CE01DF91CF911F910F9108959F92D7
:100CC000AF92BF92CF92DF92EF92FF920F931F935A
:100CD000CF93DF93EC018B01E42E0E94AF02F82E3C
:100CE00081110EC0F12C8F2DDF91CF911F910F91AB
:100CF000FF90EF90DF90CF90BF90AF909F900895BE
:100D0000CE010E944E02873209F415C114F58232D9
:100D100009F411C1CE010E944E02B82E6E01FFE00F
:100D2000CF0ED11CE12C9C2CAD2C8B2D0E943602B9
:100D3000882309F422C18FE3E81609F41EC11C863A
:100D4000E394F601B1926F01CE010E944E02B82EDB
:100D5000ECCF8B3509F455C08B37E1F6F80184816F
:100D60008078806284831182108213821282EE2046
:100D700009F452C01C86CE010E94AF02882309F4F8
:100D8000B1CF6DE7CE010E949E028111ACCFEA94F3
:100D9000E881F981828193819B838A838481958113
:100DA00022813381821B930B9F838E831D821C8241
:100DB000CE010E944E02873209F46EC0823209F4DD
:100DC0006BC0CE010E944E02D82E0E9436028823AC
:100DD00009F45DC01C866D2DCE010E94D402CE01A7
:100DE0000E944E02D82E0E9436028111F3CF60E09D
:100DF000CE010E94D4028A819B81892B09F052C0C6
:100E000027C0F801848180788064848311821082F5
:100E100013821282E11007C0C15BDF4F85E090E0D2
:100E2000998388835FCF1C86CE010E94AF028823FE
:100E300009F458CF6DE5CE010E949E02811153CF77
:100E4000EA946D857E85C8010E940006009729F40A
:100E5000C15BDF4F84E090E0E3CF4E2DBC01CE01BB
:100E60000E945F06882309F43DCFCE010E94AF02A5
:100E7000882309F437CF6DE5CE010E949E028111CF
:100E800032CF6CE2CE010E949E028111DACFC15BAB
:100E9000DF4F83E090E0C4CFCE010E94F2028823AE
:100EA00009F420CFCE010E94AF02882309F41ACFA3
:100EB0006AE3CE010E949E02882349F36A817B8106
:100EC000F801808191810E943506BC01892B99F43B
:100ED000CE010E94E5036C016D857E85C8010E94EC
:100EE0000006FC01892B09F4B3CF848180688483D8
:100EF000D782C682BF014E2DCE010E945F06882395
:100F000009F4F0CECE010E94AF02882309F4EACEA4
:100F10006DE7CE010E949E028111E5CE6CE2CE010A
:100F20000E949E02882309F4B2CFCE010E94AF0234
:100F300081112ECFD7CEE881F981828193819B8365
:100F40008A838481958122813381821B930B9F83C5
:100F50008E831D821C82CE010E94F202F82E88230D
:100F600009F4C0CECE010E94E503F8012481207867
:100F70002560248391838083B6CEFE01EE0DF11DA2
:100F800017868F85843781F4F801848180788660A4
:100F9000848381E08083F4E0EF1609F4A4CEC15B82
:100FA000DF4F82E090E03CCF863641F4F801848147
:100FB0008078866084831082F5E0EECF8E3621F44F
:100FC00084E0E812ECCF8FCEB801892D9A2D0E94D3
:100FD0001F04882309F45BCF86CE1F920F920FB6B1
:100FE0000F9211242F933F934F935F936F937F93AF
:100FF0008F939F93AF93BF93EF93FF9381E391E020
:101000000E948201FF91EF91BF91AF919F918F91CB
:101010007F916F915F914F913F912F910F900FBEF4
:101020000F901F9018951F920F920FB60F921124D8
:101030002F938F939F93EF93FF93E0914101F09152
:1010400042018081E0914701F091480182FD1BC07F
:10105000908180914A018F5F8F7320914B0182179D
:1010600041F0E0914A01F0E0EF5CFE4F958F8093F4
:101070004A01FF91EF919F918F912F910F900FBE99
:101080000F901F9018958081F4CF1F920F920FB68A
:101090000F9211242F933F938F939F93AF93BF93FE
:1010A0008091290190912A01A0912B01B0912C01EE
:1010B0003091280123E0230F2D3758F50196A11D0B
:1010C000B11D209328018093290190932A01A093B8
:1010D0002B01B0932C0180912D0190912E01A091B4
:1010E0002F01B09130010196A11DB11D80932D01FA
:1010F00090932E01A0932F01B0933001BF91AF9137
:101100009F918F913F912F910F900FBE0F901F9045
:10111000189526E8230F0296A11DB11DD2CFCF93BB
:10112000DF93CDB7DEB7C753D1400FB6F894DEBF1B
:101130000FBECDBF789484B5826084BD84B58160D4
:1011400084BD85B5826085BD85B5816085BD809192
:101150006E00816080936E0010928100809181000A
:101160008260809381008091810081608093810002
:10117000809180008160809380008091B1008460C4
:101180008093B1008091B00081608093B000809125
:101190007A00846080937A0080917A0082608093E4
:1011A0007A0080917A00816080937A0080917A0041
:1011B000806880937A001092C100E0914101F09123
:1011C000420182E08083E0913D01F0913E01108276
:1011D000E0913F01F09140018FEC80831092490132
:1011E000E0914501F091460186E08083E091430162
:1011F000F0914401808180618083E0914301F0910E
:101200004401808188608083E0914301F091440132
:10121000808180688083E0914301F0914401808166
:101220008F7D80838AE090E0A0E0B0E0809335017C
:1012300090933601A0933701B09338010E949F002C
:101240008E01015F1F4FCE0101967C019BE9292E83
:1012500090E0392E20E0C22E20E0D22E81E391E0F2
:101260000E946201181619060CF06BC01A830983DC
:101270001C830B83E7EDF0E0EC0FFD1FFE83ED8395
:10128000F887EF8319868E8580788E87C05DDE4F64
:10129000F982E882C053D14088E0FE01E05DFE4F54
:1012A000DE01A85DBE4F01900D928A95E1F788E0BE
:1012B000FE01E85DFE4FDE01A952BF4F01900D9285
:1012C0008A95E1F7C152DF4F1882CF5DD04081E3AC
:1012D00091E0C052DF4F99838883C05ED040CD51EA
:1012E000DF4F1882C35ED040CC51DF4FF982E882D5
:1012F000C45ED040CA5DDE4F19821882C652D1400A
:101300004AE0BE01665F7F4FCE0189529F4F0E9427
:101310005F068E8585FF15C0AA84BB8463E271E0F9
:10132000C5010E943506892B61F063E271E0C501B9
:101330000E9435060097B1F50E949F0080E00E9450
:10134000BB000E9411022B013C018CE2882E9924E3
:101350009394A12CB12C0E9411026419750986097D
:101360009709683E734081059105A8F321E0821A30
:101370009108A108B10888EE480E83E0581E611C50
:10138000711C81149104A104B10429F7C114D10482
:1013900009F464CF0E946E01882309F457CF0E949C
:1013A000000054CF0E9490055C010E949F00A11490
:1013B000B10421F2FFEFAF16B10411F481E0BFCF09
:1013C000F1018491833021F148F48130B9F0823009
:1013D000D1F0F0E8AF16B1048CF7B0CF873011F13F
:1013E000883041F18430A9F7809180008062809339
:1013F0008000B0928B00A0928A00A3CF84B5806851
:1014000084BDA7BC9ECF84B5806284BDA8BC99CFA3
:1014100080918000806880938000B0928900A092C3
:1014200088008FCF8091B00080688093B000A09238
:10143000B30087CF8091B00080628093B000A0920B
:10144000B4007FCFE1E3F1E01382128288EE93E0F3
:10145000A0E0B0E084839583A683B78384E091E025
:101460009183808385EC90E09587848784EC90E07D
:101470009787868780EC90E0918B808B81EC90E061
:10148000938B828B82EC90E0958B848B86EC90E042
:10149000978B868B118E128E138E148E08950E9458
:1014A000910A08F481E00895E89409C097FB3EF49E
:1014B00090958095709561957F4F8F4F9F4F9923A1
:1014C000A9F0F92F96E9BB279395F695879577951F
:1014D0006795B795F111F8CFFAF4BB0F11F460FFDF
:1014E0001BC06F5F7F4F8F4F9F4F16C0882311F037
:1014F00096E911C0772321F09EE8872F762F05C04B
:10150000662371F096E8862F70E060E02AF09A95E5
:10151000660F771F881FDAF7880F9695879597F9DA
:101520000895990F0008550FAA0BE0E8FEEF161674
:101530001706E807F907C0F012161306E407F507C7
:1015400098F0621B730B840B950B39F40A2661F03B
:10155000232B242B252B21F408950A2609F4A140DE
:10156000A6958FEF811D811D08950E94C80A0C94D5
:10157000390B0E942B0B38F00E94320B20F0952380
:1015800011F00C94220B0C94280B11240C946D0B6D
:101590000E944A0B70F3959FC1F3950F50E0551FC1
:1015A000629FF001729FBB27F00DB11D639FAA27B8
:1015B000F00DB11DAA1F649F6627B00DA11D661F07
:1015C000829F2227B00DA11D621F739FB00DA11D28
:1015D000621F839FA00D611D221F749F3327A00DE2
:1015E000611D231F849F600D211D822F762F6A2F7E
:1015F00011249F5750409AF0F1F088234AF0EE0FE3
:10160000FF1FBB1F661F771F881F91505040A9F70F
:101610009E3F510580F00C94220B0C946D0B5F3FA4
:10162000E4F3983ED4F3869577956795B795F7954B
:10163000E7959F5FC1F7FE2B880F911D96958795C3
:1016400097F9089597F99F6780E870E060E0089542
:101650009FEF80EC089500240A94161617061806CA
:101660000906089500240A941216130614060506A6
:101670000895092E0394000C11F4882352F0BB0F37
:1016800040F4BF2B11F460FF04C06F5F7F4F8F4F9A
:101690009F4F089557FD9058440F551F59F05F3FD5
:1016A00071F04795880F97FB991F61F09F3F79F084
:1016B00087950895121613061406551FF2CF469506
:1016C000F1DF08C0161617061806991FF1CF869588
:1016D0007105610508940895E894BB27662777276C
:1016E000CB0197F908950E947E0BA59F900DB49FA2
:1016F000900DA49F800D911D11240895A29FB0010B
:10170000B39FC001A39F700D811D1124911DB29F35
:10171000700D811D1124911D08950E94940B6894F1
:10172000B1110C946D0B08950E94520B88F09F57D5
:1017300098F0B92F9927B751B0F0E1F0660F771FF5
:10174000881F991F1AF0BA95C9F714C0B13091F0EB
:101750000E946C0BB1E008950C946C0B672F782FEE
:101760008827B85F39F0B93FCCF3869577956795B0
:10177000B395D9F73EF490958095709561957F4F1C
:101780008F4F9F4F08950E94910A08F48FEF08959C
:10179000A1E21A2EAA1BBB1BFD010DC0AA1FBB1F75
:1017A000EE1FFF1FA217B307E407F50720F0A21BE7
:1017B000B30BE40BF50B661F771F881F991F1A9454
:1017C00069F760957095809590959B01AC01BD017E
:1017D000CF010895EE0FFF1F0590F491E02D0994BD
:1017E000FB01DC018D91019080190110D9F3990B57
:0617F0000895F894FFCFFC
:1017F60000000000A40104013101F1016201400171
:1018060054012F2F22225C5C6208660C6E0A720D50
:081816007409006C6564000018
:00000001FF
