:100000000C94B8000C94E0000C94E0000C94E00018
:100010000C94E0000C94E0000C94E0000C94E000E0
:100020000C94E0000C94E0000C94E0000C94E000D0
:100030000C94E0000C94E0000C94E0000C94E000C0
:100040000C94A2060C94E0000C9470060C944A06E2
:100050000C94E0000C94E0000C94E0000C94E000A0
:100060000C94E0000C94E00008000000BE922449CB
:10007000123EABAAAA2ABECDCCCC4C3E00000080DA
:10008000BEABAAAAAA3E00000000BF000000803F4D
:100090000000000000084178D3BB4387D1133D190D
:1000A0000E3CC3BD4282AD2B3E68EC8276BED98F3A
:1000B000E1A93E4C80EFFFBE01C4FF7F3F0000007E
:1000C000000007634236B79BD8A71A39685618AEA6
:1000D000BAAB558C1D3CB7CC5763BD6DEDFD753E7D
:1000E000F6177231BF000000803FCDCCCC3D0AD75F
:1000F000233C17B7D13877CC2B329595E6241FB126
:100100004F0A0000803FCDCCCC3D6F12833A95BFA3
:10011000D6337D1D9026B3CE010C00002041000097
:10012000C84200401C4620BCBE4CCA1B0E5AAEC57D
:100130009D7400000000250028002B000000000036
:10014000240027002A000404040404040404020216
:100150000202020203030303030301020408102046
:1001600040800102040810200102040810209708B2
:1001700011241FBECFEFD8E0DEBFCDBF11E0A0E05D
:10018000B1E0E6EBF9E102C005900D92AE34B107A3
:10019000D9F721E0AEE4B1E001C01D92AC3FB20757
:1001A000E1F710E0C8EBD0E004C02197FE010E9407
:1001B000CA0CC73BD107C9F70E94EC060C94D90CB6
:1001C0000C940000CF93DF9390E0FC01E65AFE4FC1
:1001D00024918A5B9E4FFC0184918823C1F090E0BA
:1001E000880F991FFC01E45CFE4FC591D491FC017E
:1001F000EE5CFE4FA591B4919FB7F8948881E22FF1
:10020000E0958E2388838C91E823EC939FBFDF9148
:10021000CF910895AF92BF92CF92DF92EF92FF926B
:100220000F931F93CF93DF936C017B018B01040F1E
:10023000151FEB015E01AE18BF08C017D10759F0BA
:100240006991D601ED91FC910190F081E02DC601FC
:100250000995892B79F7C501DF91CF911F910F91F6
:10026000FF90EF90DF90CF90BF90AF900895FC018A
:10027000538D448D252F30E0842F90E0821B930B0B
:10028000541710F0CF96089501970895FC01918DB1
:10029000828D981761F0A28DAE0FBF2FB11D5D96B4
:1002A0008C91928D9F5F9F73928F90E008958FEF56
:1002B0009FEF0895FC01918D828D981731F0828D0A
:1002C000E80FF11D858D90E008958FEF9FEF089561
:1002D000FC01918D228D892F90E0805C9F4F821BC5
:1002E00091098F739927089587E591E00E9468012D
:1002F00021E0892B09F420E0822F089580E090E02E
:10030000892B29F00E94740181110C94000008953A
:10031000FC01A48DA80FB92FB11DA35ABF4F2C917A
:10032000848D90E001968F739927848FA689B78971
:100330002C93A089B1898C91837080648C93938D68
:10034000848D981306C00288F389E02D80818F7D0B
:1003500080830895EF92FF920F931F93CF93DF93C3
:10036000EC0181E0888F9B8D8C8D98131AC0E889F1
:10037000F989808185FF15C09FB7F894EE89FF89C0
:100380006083E889F98980818370806480839FBF5E
:1003900081E090E0DF91CF911F910F91FF90EF905E
:1003A0000895F62E0B8D10E00F5F1F4F0F7311276E
:1003B000E02E8C8D8E110CC00FB607FCFACFE889A9
:1003C000F989808185FFF5CFCE010E948801F1CFA8
:1003D000EB8DEC0FFD2FF11DE35AFF4FF0829FB71D
:1003E000F8940B8FEA89FB8980818062CFCFCF930D
:1003F000DF93EC01888D8823B9F0AA89BB89E8894D
:10040000F9898C9185FD03C0808186FD0DC00FB6F2
:1004100007FCF7CF8C9185FFF2CF808185FFEDCF70
:10042000CE010E948801E9CFDF91CF9108958E30EF
:1004300008F08E508770806480937C0080917A00F1
:10044000806480937A0080917A0086FDFCCF809151
:1004500078009091790008953FB7F8948091530106
:1004600090915401A0915501B091560126B5A89BD9
:1004700005C02F3F19F00196A11DB11D3FBFBA2F36
:10048000A92F982F8827BC01CD01620F711D811DF6
:10049000911D42E0660F771F881F991F4A95D1F77B
:1004A0000895CF93DF93EC0188819981DC01ED9170
:1004B000FC910190F081E02D09952A813B81820F0A
:1004C000931F9B838A83DF91CF910895CF93DF930E
:1004D000EC0188819981DC01ED91FC910280F3812E
:1004E000E02D09952A813B81820F931F9B838A838C
:1004F000DF91CF910895EF92FF920F931F93CF93C7
:10050000DF93CDB7DEB766970FB6F894DEBF0FBEA8
:10051000CDBF8C01CB01FE0177969F014AE0E42E0E
:10052000F12CB7010E94800C805D8293CB01009773
:10053000C1F7A9014E1B5F0BBF01C8010E946602F3
:1005400066960FB6F894DEBF0FBECDBFDF91CF9198
:100550001F910F91FF90EF9008958F929F92AF920D
:10056000BF92CF92DF92EF92FF920F931F93CF93A0
:10057000DF93CDB7DEB766970FB6F894DEBF0FBE38
:10058000CDBF6C018E01095E1F4F78018AE0882E75
:10059000912CA12CB12CCB01BA01A50194010E9490
:1005A000940C942F852F605DF80162938F01A9014F
:1005B000692F782F411551056105710561F7A70174
:1005C0004E1B5F0BBF01C6010E94660266960FB606
:1005D000F894DEBF0FBECDBFDF91CF911F910F9179
:1005E000FF90EF90DF90CF90BF90AF909F908F9053
:1005F0000895EF92FF920F931F93CF93DF93EC0137
:100600007B0162E20E9451028701F80161918F0132
:10061000662391F0E2E1F1E0F280FF2049F03296AA
:1006200081816813F9CF6CE5CE010E9451026F2DD4
:10063000CE010E945102E9CF62E2CE01DF91CF915B
:100640001F910F91FF90EF900C945102FC012581B6
:10065000222339F0F8E02F0290011124820F931F1A
:10066000089590E080E00895FB0101900020E9F7F3
:100670003197AF01461B570B0C9466022F923F92A5
:100680004F925F926F927F928F929F92AF92BF92A2
:10069000CF92DF92EF92FF920F931F93CF93DF934E
:1006A000CDB7DEB766970FB6F894DEBF0FBECDBFED
:1006B0008C011B01DC0114968C9114978F77863086
:1006C00009F463C278F48230B0F0843008F044C298
:1006D00012964D915C9113976D917C91C1010E948E
:1006E000660236C28C3069F160F4883009F448C281
:1006F0008A3009F437C263E271E0C1010E94340319
:1007000027C2803209F4FCC18034A9F76BE5C1012E
:100710000E945102F801008111810115110509F4AF
:10072000EAC1B101C8010E943E03C8010E9426032C
:100730008C01892B09F4DFC16CE2C1010E945102D6
:10074000ECCFF801C080D180E280F380A701960150
:10075000C701B6010E943109882331F063E271E0DC
:10076000C1010E9434039FC120E030E0A901C7010C
:10077000B6010E943109882371F0A7019601C701D3
:10078000B6010E94C5089B01AC01C701B6010E94D9
:100790003109882319F320E030E0A901C701B6012F
:1007A0000E94310987FF08C06DE2C1010E94510219
:1007B000F7FAF094F7F8F09420E836E948E15BE4C2
:1007C000C701B6010E94890A87FD81C064E1A62E97
:1007D000B12C00E210E01A8A198AF501E65EFE4F9C
:1007E0002591359145915491C701B6010E94890A1E
:1007F00087FD13C0F501E651FF4F259135914591D5
:100800005491C701B6010E94DE0A6B017C0129895F
:100810003A89200F311F3A8B298B1595079534E0C3
:10082000A31AB1088CEFA8168FEFB806B1F65524BD
:100830005A9420E030E0A901C701B6010E94890A5C
:1008400018160CF04BC02CEA35EC47E257E3C70111
:10085000B6010E94310918160CF440C0A52DB4E071
:10086000AB02C0011124B12CA12CFC01EE5FFE4FA4
:100870003F019C01265E3E4F49013FEF531671F147
:10088000F301EA0DFB1D6591759185919491A70186
:1008900096010E94890A18169CF4F401EA0DFB1DCA
:1008A0002591359145915491C701B6010E94DE0A08
:1008B0006B017C0189899A89801B910B9A8B898BAA
:1008C000159507955A9494E0A91AB108D6CF00E27D
:1008D00010E045E0542E1A8A198AABCFC701B60141
:1008E0000E94A8094B015C012B013C0106E080E459
:1008F00092E4AFE0B0E08B8B9C8BAD8BBE8B102F66
:1009000001509AE04916510461047104C8F06B89E2
:100910007C898D899E892AE030E040E050E00E9489
:10092000940C2B8B3C8B4D8B5E8BC301B2012AE068
:1009300030E040E050E00E94940C29013A01DFCF02
:10094000C501B4010E94D7099B01AC01C701B601E2
:100950000E94C4086B017C016B897C898D899E890A
:100960000E94D7099B01AC01C701B6010E94DE0AB3
:100970002B013C010E94A8096B017C010E94D70950
:100980009B01AC01C301B2010E94C4089B01AC01F0
:100990000E94C5080E94A809C60ED71EE81EF91EAF
:1009A0008B899C89AD89BE89C816D906EA06FB06E3
:1009B000D8F09FEF891A990AA90AB90AA989BA89B0
:1009C000AB2B39F1BAE08B169104A104B10408F104
:1009D000E989FA893196FA8BE98BC12CD12C760101
:1009E000812C912C540183949AE0492E512C612C36
:1009F000712CC701B601A30192010E94940C672BD0
:100A0000682B692B51F4111644F469017A011150D5
:100A1000F0CFC12CD12C7601E7CFB501A401C101E3
:100A20000E94AD02112371F14E01F1E18F0E911C74
:100A3000012F54018AE0482E512C612C712C015059
:100A400068F0C701B601A30192010E94940C605D99
:100A5000D4016E934D0169017A01F1CF812F90E0AD
:100A6000BC0160957095F501E81BF90B31978EE29A
:100A7000808344275527461B570B6A0D7B1DC101F8
:100A80000E946602E989FA89F7FF2AC068E271E0EC
:100A9000C1010E94340369897A8971956195710950
:100AA000C1010E947B02D10112968D919C916696A4
:100AB0000FB6F894DEBF0FBECDBFDF91CF911F916F
:100AC0000F91FF90EF90DF90CF90BF90AF909F90ED
:100AD0008F907F906F905F904F903F902F900895F0
:100AE00029893A89232BF9F265E6C1010E94510256
:100AF00069897A89D5CF6DE5C1010E945102D3CFB2
:100B00006BE7C1010E945102F801008111810115BA
:100B10001105D1F0D80116966D917C91C1010E940A
:100B2000F9026AE3C1010E945102B101C8010E94A9
:100B30003E03C8010E9426038C01892B29F06CE238
:100B4000C1010E945102E3CF6DE7C1010E94510231
:100B5000F10182819381ABCF6D917C91C1010E94A3
:100B6000F902F6CFCD90DD90ED90FC906DE2C101E1
:100B70000E945102B701A601C1010E94AD02E8CF57
:100B80004D915D916D917C91F7CFF80180819181BC
:100B9000A281B3816BE271E0892B8A2B8B2B09F048
:100BA000DFCD60E371E0DCCDCF92DF92EF92FF9278
:100BB0000F931F93CF93DF93FC018481982F9F772E
:100BC00039F48078806284831182108213821282C9
:100BD000848185FD0CC0D0E0C0E0CE01DF91CF91D3
:100BE0001F910F91FF90EF90DF90CF9008956115C6
:100BF000710589F37A016B018F01C081D181209742
:100C0000C1F16E817F816C157D0539F36115710528
:100C100029F0C6010E94D00C892BF9F2CE010E9466
:100C20002603EC01ECCFE9012897F701D583C483B3
:100C3000209789F2D8011296ED91FC911397309785
:100C400091F0CE018E1B9F0B23E0959587952A95F9
:100C5000E1F785831396DC93CE9312971D821C8255
:100C6000DF82CE82BACFF801D183C083D383C2831F
:100C7000F5CFD70114962D913C91159712968D9131
:100C80009C9108962817390770F681E0D7011896CD
:100C90008C93A3CF1F920F920FB60F9211242F9314
:100CA0003F934F935F936F937F938F939F93AF93F4
:100CB000BF93EF93FF9387E591E00E948801FF9136
:100CC000EF91BF91AF919F918F917F916F915F91C4
:100CD0004F913F912F910F900FBE0F901F9018953D
:100CE0001F920F920FB60F9211242F938F939F9301
:100CF000EF93FF93E0916701F09168018081E091AB
:100D00006D01F0916E0182FD1BC090818091700198
:100D10008F5F8F7320917101821741F0E091700114
:100D2000F0E0E95AFE4F958F80937001FF91EF91AB
:100D30009F918F912F910F900FBE0F901F9018953C
:100D40008081F4CF1F920F920FB60F9211242F9330
:100D50003F938F939F93AF93BF9380914F01909157
:100D60005001A0915101B091520130914E0123E008
:100D7000230F2D3758F50196A11DB11D20934E016B
:100D800080934F0190935001A0935101B093520171
:100D90008091530190915401A0915501B091560159
:100DA0000196A11DB11D8093530190935401A0930E
:100DB0005501B0935601BF91AF919F918F913F9193
:100DC0002F910F900FBE0F901F90189526E8230FBC
:100DD0000296A11DB11DD2CFCF93DF93CDB7DEB761
:100DE000C857D1090FB6F894DEBF0FBECDBF7894B7
:100DF00084B5826084BD84B5816084BD85B5826020
:100E000085BD85B5816085BD80916E0081608093D0
:100E10006E00109281008091810082608093810039
:100E20008091810081608093810080918000816049
:100E3000809380008091B10084608093B1008091A4
:100E4000B00081608093B00080917A0084608093CC
:100E50007A0080917A00826080937A0080917A0093
:100E6000816080937A0080917A00806880937A0014
:100E70001092C1008EE00E94E2008FE00E94E2002A
:100E8000E0916701F091680182E08083E091630165
:100E9000F09164011082E0916501F09166018FECA0
:100EA000808310926F01E0916B01F0916C0186E0FC
:100EB0008083E0916901F0916A0180818061808383
:100EC000E0916901F0916A01808188608083E091FE
:100ED0006901F0916A01808180688083E0916901F5
:100EE000F0916A0180818F7D80835E012FE0A20EE8
:100EF000B11C8E010D581F4F97E5292E91E0392E18
:100F000020E0822E20E0922EBA82A982BC82AB829F
:100F10001E830D8318870F8319868E8580788E87B0
:100F20008FE00E941702BC01990F880B990B0E9459
:100F3000D9099B01AC0160E070EC8FE794E40E945A
:100F4000360920E030E040E85FE30E94C40820E07A
:100F500030E44CE156E40E94DE0A0E94960A6B01DE
:100F60007C012CE63FEC48E554E30E94DE0AA70131
:100F700096010E94DE0AA70196010E94DE0A2B015B
:100F80003C0126ED34E649E759E3C701B6010E946A
:100F9000DE0A2BEC38E444E85AE30E94C5089B01C2
:100FA000AC01C301B2010E94C5089B01AC0160E025
:100FB00070E080E89FE30E94360923E333E948E8C4
:100FC00053E40E94C4082B013C014092F801509266
:100FD000F9016092FA017092FB0180917800909182
:100FE00079008EE00E941702909379008093780038
:100FF000609178007091790090E080E00E94D709BC
:101000009B01AC0160E070EC8FE794E40E9436092C
:1010100020E030E040E85FE30E94C40820E030E4D4
:101020004CE156E40E94DE0A9B01AC0160E079EDE0
:1010300088EF97E40E9436092EE336E245E95FE344
:101040000E944B0B6B017C01C092F401D092F50120
:10105000E092F601F092F701AE014F5F5F4F66E359
:1010600071E0CE010A960E94D405FC01892B41F063
:10107000948190789C6094834082518262827382D2
:10108000AE014F5F5F4F61E471E0CE010A960E94AE
:10109000D405FC01892B41F0948190789C60948365
:1010A000C082D182E282F382F801318220821382EF
:1010B0001282B801CE010A960E943E0342E050E03F
:1010C0006AE471E087E591E00E940A010E942C0227
:1010D0006B017C0188EE482E83E0582E612C712C28
:1010E0000E942C026C197D098E099F09683E73408D
:1010F00081059105A8F3F1E04F1A510861087108C4
:1011000028EEC20E23E0D21EE11CF11C4114510452
:101110006104710429F78114910409F4F5CE0E9449
:101120007401882309F4F0CE0E940000EDCEE7E5BB
:10113000F1E01382128288EE93E0A0E0B0E08483B5
:101140009583A683B78384E091E09183808385ECC7
:1011500090E09587848784EC90E09787868780EC81
:1011600090E0918B808B81EC90E0938B828B82EC72
:1011700090E0958B848B86EC90E0978B868B118E1C
:10118000128E138E148E08955058BB27AA270E94E2
:10119000DC080C944F0A0E94410A38F00E94480A69
:1011A00020F039F49F3F19F426F40C943E0A0EF413
:1011B000E095E7FB0C94380AE92F0E94600A58F387
:1011C000BA17620773078407950720F079F4A6F52C
:1011D0000C94820A0EF4E0950B2EBA2FA02D0B0171
:1011E000B90190010C01CA01A0011124FF27591B6C
:1011F00099F0593F50F4503E68F11A16F040A22F72
:10120000232F342F4427585FF3CF469537952795E2
:10121000A795F0405395C9F77EF41F16BA0B620BE1
:10122000730B840BBAF09150A1F0FF0FBB1F661F28
:10123000771F881FC2F70EC0BA0F621F731F841F6B
:1012400048F4879577956795B795F7959E3F08F091
:10125000B0CF9395880F08F09927EE0F9795879553
:1012600008950E94140A08F481E008950E944A0932
:101270000C944F0A0E94480A58F00E94410A40F01C
:1012800029F45F3F29F00C94380A51110C94830A19
:101290000C943E0A0E94600A68F39923B1F3552327
:1012A00091F3951B550BBB27AA2762177307840779
:1012B00038F09F5F5F4F220F331F441FAA1FA9F30F
:1012C00035D00E2E3AF0E0E832D091505040E695FD
:1012D000001CCAF72BD0FE2F29D0660F771F881F5E
:1012E000BB1F261737074807AB07B0E809F0BB0B51
:1012F000802DBF01FF2793585F4F3AF09E3F510565
:1013000078F00C94380A0C94830A5F3FE4F3983E1B
:10131000D4F3869577956795B795F7959F5FC9F74D
:10132000880F911D9695879597F90895E1E0660FCE
:10133000771F881FBB1F621773078407BA0720F047
:10134000621B730B840BBA0BEE1F88F7E0950895B0
:101350000E94680A88F09F5798F0B92F9927B751D3
:10136000B0F0E1F0660F771F881F991F1AF0BA9549
:10137000C9F714C0B13091F00E94820AB1E008951B
:101380000C94820A672F782F8827B85F39F0B93F0D
:10139000CCF3869577956795B395D9F73EF49095FC
:1013A0008095709561957F4F8F4F9F4F0895E8947A
:1013B00009C097FB3EF490958095709561957F4F9D
:1013C0008F4F9F4F9923A9F0F92F96E9BB2793954B
:1013D000F695879577956795B795F111F8CFFAF45B
:1013E000BB0F11F460FF1BC06F5F7F4F8F4F9F4F8C
:1013F00016C0882311F096E911C0772321F09EE8EA
:10140000872F762F05C0662371F096E8862F70E04F
:1014100060E02AF09A95660F771F881FDAF7880F29
:101420009695879597F90895990F0008550FAA0B7F
:10143000E0E8FEEF16161706E807F907C0F01216E7
:101440001306E407F50798F0621B730B840B950BEA
:1014500039F40A2661F0232B242B252B21F408953F
:101460000A2609F4A140A6958FEF811D811D0895DC
:1014700097F99F6780E870E060E008959FEF80EC47
:10148000089500240A9416161706180609060895EA
:1014900000240A9412161306140605060895092E50
:1014A0000394000C11F4882352F0BB0F40F4BF2BBF
:1014B00011F460FF04C06F5F7F4F8F4F9F4F0895FF
:1014C00057FD9058440F551F59F05F3F71F04795F5
:1014D000880F97FB991F61F09F3F79F087950895DA
:1014E000121613061406551FF2CF4695F1DF08C0F9
:1014F000161617061806991FF1CF86957105610516
:1015000008940895E894BB2766277727CB0197F9BD
:1015100008950E94140A08F48FEF089516F00C94B1
:10152000D50B0C943E0A68940C94380A0E94680A01
:10153000A8F39923C1F3AEF3DF93CF931F930F93D7
:10154000FF92C92FDD2788232AF02197660F771F86
:10155000881FDAF720E030E040E85FEB9FE388394E
:1015600020F0803E38F021968F770E94C508E8E68B
:10157000F0E004C00E94C508E5E9F0E00E94E30B3A
:101580008B01BE01EC01FB2E6F5771097595771F1A
:10159000880B990B0E94D90928E132E741E35FE308
:1015A0000E94F10AAF2D9801AE01FF900F911F919B
:1015B000CF91DF910E94DC080C944F0A0E94F10A3F
:1015C0000C944F0A0E94410A38F00E94480A20F009
:1015D000952311F00C94380A0C943E0A11240C94B3
:1015E000830A0E94600A70F3959FC1F3950F50E043
:1015F000551F629FF001729FBB27F00DB11D639FC5
:10160000AA27F00DB11DAA1F649F6627B00DA11D6A
:10161000661F829F2227B00DA11D621F739FB00D10
:10162000A11D621F839FA00D611D221F749F332780
:10163000A00D611D231F849F600D211D822F762F19
:101640006A2F11249F5750409AF0F1F088234AF0F6
:10165000EE0FFF1FBB1F661F771F881F9150504062
:10166000A9F79E3F510580F00C94380A0C94830A28
:101670005F3FE4F3983ED4F3869577956795B795E9
:10168000F795E7959F5FC1F7FE2B880F911D969503
:10169000879597F90895FA01EE0FFF1F30962105FF
:1016A0003105A1F16115710561F48038BFE39B0735
:1016B00049F168949038810561F08038BFEF9B074D
:1016C00041F099234AF5FF3FE1053105210519F164
:1016D000E8940894E795D901AA2329F4AB2FBE2FEB
:1016E000F85FD0F310C0FF5F70F4A695E0F7F7390C
:1016F00050F019F0FF3A38F49F779F930DD00F9078
:1017000007FC9058089546F00C943E0A60E070E0A3
:1017100080E89FE308954FE79F775F934F933F9350
:101720002F930E94960A2F913F914F915F910E94B3
:10173000DE0A0C94A30B29F416F00C94380A0C94CE
:10174000820A0C943E0A0E94680AA8F39638A0F711
:1017500007F80F92E8942BE33AEA48EB5FE70E9420
:10176000F40A0F920F920F924DB75EB70F920E943C
:101770004C0CE2ECF0E00E94E30B4F915F91EF9193
:10178000FF91E595EE1FFF1F49F0FE57E0684427E3
:10179000EE0F441FFA95E1F74195550B0E94160C88
:1017A0000F9007FE0C940A0C08959F3F31F0915062
:1017B00020F4879577956795B795880F911D969535
:1017C000879597F90895DF93CF931F930F93FF9217
:1017D000EF92DF927B018C01689406C0DA2EEF0154
:1017E0000E94F10AFE01E894A59125913591459159
:1017F0005591A6F3EF010E94DC08FE019701A801B4
:10180000DA9469F7DF90EF90FF900F911F91CF91DD
:10181000DF9108959B01AC0160E070E080E89FE3F8
:101820000C9436090C94380A0C94D50B0E94680A63
:10183000D8F39923C9F3940F511DA3F3915050404D
:1018400094F059F0882332F0660F771F881F91506B
:101850005040C1F79E3F51052CF7880F911D96957A
:10186000879597F908955F3FACF0983E9CF0BB27B1
:10187000869577956795B79508F4B1609395C1F70C
:10188000BB0F58F711F460FFE8CF6F5F7F4F8F4FAA
:101890009F4FE3CF0C94830AFA01DC01AA0FBB1F10
:1018A0009B01AC01BF5728F42227332744275078E7
:1018B00020C0B75190F4AB2F00244695379527955B
:1018C000011CA395D2F3002071F0220F331F441F97
:1018D000B395DAF30ED00C94C40861307105A0E81A
:1018E0008A07B94630F49B01AC0166277727882721
:1018F0009078309621F0208331834283538308957A
:1019000097FB072E16F4009407D077FD09D00E94AC
:10191000B60C07FC05D03EF4909581959F4F089535
:10192000709561957F4F0895A1E21A2EAA1BBB1BEB
:10193000FD010DC0AA1FBB1FEE1FFF1FA217B3079B
:10194000E407F50720F0A21BB30BE40BF50B661FB1
:10195000771F881F991F1A9469F760957095809575
:1019600090959B01AC01BD01CF010895AA1BBB1B43
:1019700051E107C0AA1FBB1FA617B70710F0A61B8F
:10198000B70B881F991F5A95A9F780959095BC01B0
:10199000CD010895EE0FFF1F0590F491E02D0994FD
:1019A000FB01DC018D91019080190110D9F3990B95
:0619B0000895F894FFCF3A
:1019B60000000000AA010A013701F701680146018B
:1019C6005A012F2F22225C5C6208660C6E0A720D89
:1019D6007409006E756C6C00652D00747275650077
:1019E60066616C73650073656E736F7274656D7096
:0E19F6000073656E736F727576000D0A000047
:00000001FF
