:100000000C9462000C948A000C948A000C948A0070
:100010000C948A000C948A000C948A000C948A0038
:100020000C948A000C948A000C948A000C940D04A1
:100030000C948A000C948A000C948A000C948A0018
:100040000C94C3030C948A000C9491030C946B03DE
:100050000C948A000C948A000C948A000C948A00F8
:100060000C948A000C948A000000000023002600F3
:10007000290000000000240027002A0000000000E2
:10008000250028002B0004040404040404040202D4
:100090000202020203030303030301020408102007
:1000A0004080010204081020010204081020000012
:1000B0000008000201000003040700000000000027
:1000C0000000B60411241FBECFEFD8E0DEBFCDBFC5
:1000D00011E0A0E0B1E0E4EDF1E102C005900D9285
:1000E000A432B107D9F721E0A4E2B1E001C01D922A
:1000F000AD3FB207E1F710E0C2E6D0E004C02197BF
:10010000FE010E94F006C136D107C9F70E94FF0424
:100110000C94E8080C940000AF92BF92CF92DF924B
:10012000EF92FF920F931F93CF93DF936C017B01AC
:100130008B01040F151FEB015E01AE18BF08C0173D
:10014000D10759F06991D601ED91FC910190F081B0
:10015000E02DC6010995892B79F7C501DF91CF9173
:100160001F910F91FF90EF90DF90CF90BF90AF90D5
:100170000895FC01538D448D252F30E0842F90E0AD
:10018000821B930B541710F0CF9608950197089592
:10019000FC01918D828D981761F0A28DAE0FBF2F5B
:1001A000B11D5D968C91928D9F5F9F73928F90E0B1
:1001B00008958FEF9FEF0895FC01918D828D981720
:1001C00031F0828DE80FF11D858D90E008958FEF5D
:1001D0009FEF0895FC01918D228D892F90E0805C26
:1001E0009F4F821B91098F739927089588E591E0AD
:1001F0000E94EA0021E0892B09F420E0822F089573
:1002000080E090E0892B29F00E94F60081110C9487
:1002100000000895FC01A48DA80FB92FB11DA35AA9
:10022000BF4F2C91848D90E001968F739927848F16
:10023000A689B7892C93A089B1898C918370806439
:100240008C93938D848D981306C00288F389E02DDA
:1002500080818F7D80830895EF92FF920F931F938B
:10026000CF93DF93EC0181E0888F9B8D8C8D981369
:100270001AC0E889F989808185FF15C09FB7F89475
:10028000EE89FF896083E889F989808183708064C1
:1002900080839FBF81E090E0DF91CF911F910F910C
:1002A000FF90EF900895F62E0B8D10E00F5F1F4F1B
:1002B0000F731127E02E8C8D8E110CC00FB607FC2A
:1002C000FACFE889F989808185FFF5CFCE010E94B8
:1002D0000A01F1CFEB8DEC0FFD2FF11DE35AFF4F1B
:1002E000F0829FB7F8940B8FEA89FB898081806246
:1002F000CFCFCF93DF93EC01888D8823B9F0AA8903
:10030000BB89E889F9898C9185FD03C0808186FDD0
:100310000DC00FB607FCF7CF8C9185FFF2CF80811F
:1003200085FFEDCFCE010E940A01E9CFDF91CF9189
:10033000089590E0FC01E255FF4F2491FC01E65640
:10034000FF4F3491FC01EA57FF4FE491EE23C9F0CF
:10035000222339F0233001F1A8F4213019F12230A1
:1003600029F1F0E0EE0FFF1FE458FF4FA591B49183
:100370008FB7F894EC91611126C030953E233C93E1
:100380008FBF08952730A9F02830C9F0243049F7ED
:10039000809180008F7D03C0809180008F77809353
:1003A0008000DFCF84B58F7784BDDBCF84B58F7DB0
:1003B000FBCF8091B0008F778093B000D2CF809137
:1003C000B0008F7DF9CF3E2BDACFCF93DF9390E053
:1003D000FC01E656FF4F24918A579F4FFC01849100
:1003E0008823D1F090E0880F991FFC01EE58FF4F51
:1003F000A591B491FC01E458FF4FC591D4916111CE
:100400000EC09FB7F8948C91E22FE0958E238C93C9
:100410002881E223E8839FBFDF91CF9108958FB7B2
:10042000F894EC91E22BEC938FBFF6CF3FB7F894A2
:100430008091500190915101A0915201B0915301CE
:1004400026B5A89B05C02F3F19F00196A11DB11D2F
:100450003FBFBA2FA92F982F8827BC01CD01620F6B
:10046000711D811D911D42E0660F771F881F991F26
:100470004A95D1F708958F929F92AF92BF92CF92F3
:10048000DF92EF92FF924B015C010E9416026B011A
:100490007C010E9416026C197D098E099F09683E35
:1004A000734081059105A8F321E0821A9108A10803
:1004B000B10888EEC80E83E0D81EE11CF11C81143F
:1004C0009104A104B10429F7FF90EF90DF90CF9041
:1004D000BF90AF909F908F9008951F93CF93DF931D
:1004E000182F8BE0869FE001879FD00D1124CC5000
:1004F000DE4FD0932501C093240161E0812F0E943B
:100500009901CC0FDD1FCC0FDD1F25972197F1F747
:1005100060E0812F0E94990162E370E080E090E04A
:10052000DF91CF911F910C943B020F931F93CF93B8
:10053000DF93EC0188819981009759F02A813B81F2
:100540002617370730F081E0DF91CF911F910F918F
:1005500008958B016F5F7F4F0E941B08009759F031
:10056000998388831B830A832C813D81232B59F730
:10057000FC011082E8CF80E0E7CFEF92FF920F936B
:100580001F93CF93DF936115710541F480E0DF91F4
:10059000CF911F910F91FF90EF9008954115510554
:1005A000B1F07B01EC010C811D81040F151FB80116
:1005B0000E949502882351F3288139818C819D8185
:1005C000B701820F931F0E94E1081D830C8381E015
:1005D000DECFCF93DF93EC0188819981009711F0F2
:1005E0000E949207198218821D821C821B821A8225
:1005F000DF91CF910895EF92FF920F931F93CF93C6
:10060000DF93EC017B018A01BA010E9495028111FE
:100610000BC0CE010E94E902CE01DF91CF911F9164
:100620000F91FF90EF9008951D830C83B70188818F
:1006300099810E94E108F0CFFC01808191810097AF
:1006400011F00C94920708950F931F93CF93DF93AB
:10065000EC0160E088810E94990183E090E00197BD
:10066000F1F761E088810E94990183E290E00197AF
:10067000F1F760E088810E949901898190E0FC0196
:10068000E656FF4F6491FC01EA57FF4FE491F0E01A
:10069000EE0FFF1FE859FF4F8591949100E412E49B
:1006A0002FE030E0462F0E9471046115710581052D
:1006B000910529F06F5F7F4F8F4F9F4F9F702BE306
:1006C00030E040E050E00E94CE06C901DF91CF91BA
:1006D0001F910F9108951F920F920FB60F92112440
:1006E0002F933F934F935F936F937F938F939F933A
:1006F000AF93BF93EF93FF9388E591E00E940A01C7
:10070000FF91EF91BF91AF919F918F917F916F91E9
:100710005F914F913F912F910F900FBE0F901F90BF
:1007200018951F920F920FB60F9211242F938F934B
:100730009F93EF93FF93E0916801F09169018081AD
:10074000E0916E01F0916F0182FD1BC0908180915C
:1007500071018F5F8F7320917201821741F0E091D8
:100760007101F0E0E85AFE4F958F80937101FF917F
:10077000EF919F918F912F910F900FBE0F901F902F
:1007800018958081F4CF1F920F920FB60F9211240B
:100790002F933F938F939F93AF93BF9380914C017F
:1007A00090914D01A0914E01B0914F0130914B01BC
:1007B00023E0230F2D3758F50196A11DB11D20937D
:1007C0004B0180934C0190934D01A0934E01B09347
:1007D0004F018091500190915101A0915201B0912F
:1007E00053010196A11DB11D8093500190935101B9
:1007F000A0935201B0935301BF91AF919F918F91FC
:100800003F912F910F900FBE0F901F90189526E8E3
:10081000230F0296A11DB11DD2CF1F920F920FB6CA
:100820000F9211242F933F938F939F93EF93FF93F6
:1008300080914A0187FF1FC01092850010928400AA
:1008400080914A018F5F80934A0180914A0187FF1E
:1008500004C080914A018C30ACF08091840090916A
:100860008500049680349C4990F180918400909199
:10087000850004962EC080914A0187FFE1CF8091C8
:100880004A01DECF2091840030918500E0914A0139
:100890008E2FEE0F990BFC01EE0FFF1FE80FF91FD3
:1008A000EA5DFE4F81819281820F931F90938900B0
:1008B0008093880080914A01FF91EF919F918F91E1
:1008C0003F912F910F900FBE0F901F90189580E4CD
:1008D0009CE990938900809388008FEF80934A0170
:1008E000EBCFCF92DF92EF92FF920F931F93E82FFF
:1008F000F92F05C0015011092109310961F19081D9
:1009000096239417B9F305C0015011092109310943
:1009100011F1908196239413F7CFC12CD12CE12CA7
:10092000F12C0AC08FEFC81AD80AE80AF80A0C1589
:100930001D052E053F0579F080818623841791F3EC
:100940006C2D7D2D8E2D9F2D1F910F91FF90EF907F
:10095000DF90CF90089560E070E080E090E01F911C
:100960000F91FF90EF90DF90CF900895E8E5F1E0D0
:100970001382128288EE93E0A0E0B0E08483958336
:10098000A683B7838AE091E09183808385EC90E031
:100990009587848784EC90E09787868780EC90E049
:1009A000918B808B81EC90E0938B828B82EC90E03A
:1009B000958B848B86EC90E0978B868B118E128EB4
:1009C000138E148E61E084E00E94E50160E085E012
:1009D0000E94E501E7EFF1E084E0808385E0818318
:1009E00061E088E00E94E50160E089E00E94E501A5
:1009F000E5EFF1E088E0808389E081830895CF937B
:100A0000DF93CDB7DEB7A3970FB6F894DEBF0FBE66
:100A1000CDBF789484B5826084BD84B5816084BD87
:100A200085B5826085BD85B5816085BD80916E008C
:100A3000816080936E0010928100809181008260BD
:100A400080938100809181008160809381008091FA
:100A500080008160809380008091B10084608093E9
:100A6000B1008091B00081608093B00080917A00E5
:100A7000846080937A0080917A00826080937A000B
:100A800080917A00816080937A0080917A008068FA
:100A900080937A001092C100E0916801F0916901A1
:100AA00082E08083E0916401F09165011082E09121
:100AB0006601F09167018FEC808310927001E091E4
:100AC0006C01F0916D0186E08083E0916A01F09104
:100AD0006B01808180618083E0916A01F0916B01FC
:100AE000808188608083E0916A01F0916B01808150
:100AF00080688083E0916A01F0916B0180818F7D35
:100B0000808361E086E00E94E50161E08AE00E9466
:100B1000E501CE0101967C0180E0C82E80E0D82E50
:100B200087EF91E00E942403909357018093560130
:100B300085EF91E00E942403909355018093540126
:100B40001B8A1A8A1D8A1C8A1F8A1E8A43E050E06B
:100B500068E171E0CE0142960E94FB0285EF91E0D0
:100B60000E9424038C01198E188E1B8E1A8E1D8EE6
:100B70001C8E44E050E06CE171E0CE0148960E948A
:100B8000FB0287EF91E00E9424031F8E1E8E19A2A4
:100B900018A21BA21AA24AE0B7010E946D06F70133
:100BA00001900020E9F73197AF014E195F09B701B5
:100BB000CE014E960E94FB024C8D5D8D688D798D25
:100BC000CE014E960E94BD02811104C0CE014E9608
:100BD0000E94E9024AE0B701C8010E946D06F701D0
:100BE00001900020E9F73197EE19FF09B9F00AA149
:100BF0001BA10E0F1F1FB801CE014E960E94950239
:100C0000882309F465C02E8D3F8D8AA19BA1B70171
:100C1000820F931F0E94E1081BA30AA34E895F89DC
:100C20006A897B89CE014E960E94BD02811104C063
:100C3000CE014E960E94E9024AA15BA16E8D7F8D86
:100C400088E591E00E948C0042E050E061E271E0B2
:100C500088E591E00E948C00CE014E960E941C0314
:100C6000CE0148960E941C03CE0142960E941C03AE
:100C700064E670E080E090E00E943B0280915601C3
:100C8000909157016AE570E08436910514F464EBA5
:100C900070E086E090E00E946D0280915401909196
:100CA000550170E060E08436910514F46AE570E067
:100CB0008AE090E00E946D02C114D10409F430CFA3
:100CC0000E94F600882309F42BCF0E94000028CF51
:100CD000CE014E960E94E902A1CFBB27FB0155270A
:100CE000AA27880F991FAA1FA41710F0A41B839589
:100CF0005051B9F7A05DAA3308F0A95DA193009700
:100D000079F7B111B1931192CB010C948706DC01F4
:100D1000FC01672F71917723E1F7329704C07C9132
:100D20006D9370836291AE17BF07C8F308952F9239
:100D30003F924F925F926F927F928F929F92AF926B
:100D4000BF92CF92DF92EF92FF920F931F93CF93B8
:100D5000DF93CDB7DEB7CA1BDB0B0FB6F894DEBF4F
:100D60000FBECDBF09942A88398848885F846E8475
:100D70007D848C849B84AA84B984C884DF80EE80BF
:100D8000FD800C811B81AA81B981CE0FD11D0FB6C8
:100D9000F894DEBF0FBECDBFED010895A1E21A2E7B
:100DA000AA1BBB1BFD010DC0AA1FBB1FEE1FFF1F0F
:100DB000A217B307E407F50720F0A21BB30BE40B5F
:100DC000F50B661F771F881F991F1A9469F76095A6
:100DD0007095809590959B01AC01BD01CF01089560
:100DE000EE0FFF1F0590F491E02D09940F931F93D0
:100DF000CF93DF938230910510F482E090E0E09190
:100E0000FB01F091FC0130E020E0B0E0A0E0309781
:100E100099F42115310509F44AC0281B390B2430F7
:100E20003105D8F58A819B816115710589F1FB0136
:100E300093838283FE0111C040815181028113811D
:100E400048175907E0F04817590799F4109761F0CF
:100E500012960C93129713961C933296CF01DF9142
:100E6000CF911F910F9108950093FB011093FC0106
:100E7000F4CF2115310551F04217530738F0A9017D
:100E8000DB019A01BD01DF01F801C1CFEF01F9CF0C
:100E90009093FC018093FB01CDCFFE01E20FF31F85
:100EA000819391932250310939832883D7CF2091A0
:100EB000F9013091FA01232B41F420910201309184
:100EC00003013093FA012093F90120910001309140
:100ED00001012115310541F42DB73EB740910401C0
:100EE00050910501241B350BE091F901F091FA01B5
:100EF000E217F307A0F42E1B3F0B2817390778F0F1
:100F0000AC014E5F5F4F2417350748F04E0F5F1F4F
:100F10005093FA014093F901819391939FCFF0E0B0
:100F2000E0E09CCFCF93DF930097E9F0FC0132978C
:100F300013821282A091FB01B091FC01ED0130E01F
:100F400020E01097A1F420813181820F931F20911E
:100F5000F9013091FA012817390709F061C0F093BF
:100F6000FA01E093F901DF91CF910895EA01CE17DC
:100F7000DF07E8F54A815B819E0141155105B1F714
:100F8000E901FB83EA8349915991C40FD51FEC17FE
:100F9000FD0761F4808191810296840F951FE9011C
:100FA00099838883828193819B838A83F0E0E0E048
:100FB00012968D919C9113970097B9F52D913C91C4
:100FC0001197CD010296820F931F2091F901309164
:100FD000FA012817390739F6309751F51092FC01BC
:100FE0001092FB01B093FA01A093F901BCCFD38317
:100FF000C28340815181840F951FC817D90761F4BE
:101000004E5F5F4F88819981480F591F51834083FC
:101010008A819B81938382832115310509F0B0CFAA
:10102000F093FC01E093FB019ECFFD01DC01C0CFFA
:1010300013821282D7CFB0E0A0E0E1E2F8E00C9496
:1010400099068C01009751F4CB010E94F6068C01A1
:10105000C801CDB7DEB7E0E10C94B506FC01E60FA0
:10106000F71F9C0122503109E217F30708F49DC0D5
:10107000D901CD91DC911197C617D70798F0C530EB
:10108000D10530F3CE0104978617970708F3C61BE6
:10109000D70B2297C193D1936D937C93CF010E947C
:1010A0009207D6CF5B01AC1ABD0A4C018C0E9D1E77
:1010B000A091FB01B091FC01512C412CF12CE12CB1
:1010C000109731F58091F9019091FA0188159905F1
:1010D00009F05CC04616570608F058C08091000120
:1010E00090910101009741F48DB79EB740910401A2
:1010F00050910501841B950BE817F90708F055C0BE
:10110000F093FA01E093F901F90171836083A0CFB4
:101110008D919C91119712966C90129713967C90DA
:101120001397A815B90559F56C0142E0C40ED11CFE
:10113000CA14DB0420F1AC014A195B09DA011296EA
:10114000159780F06282738251834083D9016D9339
:101150007C93E114F10471F0D7011396FC93EE93A4
:10116000129776CF22968C0F9D1FF9019183808371
:10117000F301EFCFF093FC01E093FB0169CF481638
:10118000590608F42C017D01D3019ACFCB010E94AE
:10119000F6067C01009749F0AE01B8010E94D8081C
:1011A000C8010E949207870153CF10E000E050CFA2
:1011B000FB01DC0102C001900D9241505040D8F774
:1011C0000895FB01DC0101900D920020E1F70895E4
:0411D000F894FFCFC1
:1011D4000000FD018000000000002C018C00B9001B
:1011E4007901EA00C800DC0020636D0020636D20F3
:0411F400000D0A00E0
:00000001FF
