:100000000C945D000C9485000C9485000C94850084
:100010000C9485000C9485000C9485000C9485004C
:100020000C9485000C9485000C9485000C9424029B
:100030000C9485000C9485000C9485000C9485002C
:100040000C94DA010C9485000C9485000C948500C6
:100050000C9485000C9485000C9485000C9485000C
:100060000C9485000C94850000000008000201003B
:100070000003040700000000000000000000000072
:10008000250028002B0000000000240027002A0083
:10009000040404040404040402020202020203032E
:1000A0000303030301020408102040800102040836
:1000B0001020010204081020F60311241FBECFEF08
:1000C000D8E0DEBFCDBF11E0A0E0B1E0E4E4F9E0AC
:1000D00002C005900D92A030B107D9F721E0A0E051
:1000E000B1E001C01D92A733B207E1F710E0CDE502
:1000F000D0E004C02197FE010E949A04CC35D107BC
:10010000C9F70E94E0020C94A0040C94000090E057
:10011000FC01EC55FF4F249180579F4FFC018491C7
:10012000882399F090E0880F991FFC01EA57FF4F50
:10013000A591B491FC01E458FF4F859194918FB73C
:10014000F894EC91E22BEC938FBF089590E0FC01C2
:10015000E859FF4F2491FC01EC55FF4F3491FC010D
:10016000E057FF4FE491EE23C9F0222339F023300A
:1001700001F1A8F4213019F1223029F1F0E0EE0F5D
:10018000FF1FE458FF4FA591B4918FB7F894EC91FD
:10019000611126C030953E233C938FBF08952730D0
:1001A000A9F02830C9F0243049F7809180008F7D74
:1001B00003C0809180008F7780938000DFCF84B56B
:1001C0008F7784BDDBCF84B58F7DFBCF8091B0006E
:1001D0008F778093B000D2CF8091B0008F7DF9CF20
:1001E0003E2BDACF3FB7F894809107019091080138
:1001F000A0910901B0910A0126B5A89B05C02F3F27
:1002000019F00196A11DB11D3FBFBA2FA92F982F3C
:100210008827BC01CD01620F711D811D911D42E037
:10022000660F771F881F991F4A95D1F708958F92FF
:100230009F92AF92BF92CF92DF92EF92FF920E9475
:10024000F2004B015C018FE0C82ED12CE12CF12C87
:100250000E94F200681979098A099B09683E734077
:1002600081059105A8F321E0C21AD108E108F1083F
:1002700088EE880E83E0981EA11CB11CC114D10425
:10028000E104F10429F7FF90EF90DF90CF90BF9049
:10029000AF909F908F900895CF92DF92EF92FF9250
:1002A000CF93DF93EC01603282E07807CCF5653BB9
:1002B000710514F064EB70E0898128E830E0281BB8
:1002C000310987FD3395220F331F220F331F690138
:1002D000330FEE08FF088A8128E532E0281B310938
:1002E00087FD3395220F331F220F331F032E000C7F
:1002F000440B550B2C193D094E095F09DB0177FFB3
:1003000002C0B0E0A0E00E94550424EB30E040E0E1
:1003100050E00E942B04C20ED31EE41EF51EB6014F
:10032000E881EC3070F5298188E890E0821B910922
:1003300027FD9395880F991F880F991F68177907D4
:100340007CF02A8188E592E0821B910927FD939534
:10035000880F991F880F991F681779070CF4CB0134
:100360000297880F991F4FB7F8942E2F30E0F901AC
:10037000EE0FFF1FE20FF31FE55FFE4F92838183B5
:100380004FBFDF91CF91FF90EF90DF90CF90089516
:10039000892B79F41092800082E080938100109282
:1003A000850010928400B19A80916F0082608093E2
:1003B0006F0008951F920F920FB60F9211242F9382
:1003C0003F938F939F93AF93BF938091030190913D
:1003D0000401A0910501B09106013091020123E0D2
:1003E000230F2D3758F50196A11DB11D2093020151
:1003F0008093030190930401A0930501B09306013B
:100400008091070190910801A0910901B0910A0122
:100410000196A11DB11D8093070190930801A0933F
:100420000901B0930A01BF91AF919F918F913F91C4
:100430002F910F900FBE0F901F90189526E8230F55
:100440000296A11DB11DD2CF1F920F920FB60F922F
:1004500011242F933F934F935F936F937F938F93C9
:100460009F93AF93BF93CF93DF93EF93FF938091CD
:100470000101C0910001D0E087FF24C010928500E7
:1004800010928400809101018F5F8093010180911F
:100490000101082E000C990B8C179D0724F4809104
:1004A00001018C30C4F18091840090918500049604
:1004B00080349C4908F47AC0809184009091850032
:1004C000049676C080910101082E000C990B8C17C0
:1004D0009D07C4F6E09101018E2FEE0F990BFC01F0
:1004E000EE0FFF1FE80FF91FE55FFE4F808186FFCB
:1004F000C9CFE09101018E2FEE0F990BFC01EE0F99
:10050000FF1FE80FF91FE55FFE4F808160E08F73EA
:100510000E94A600B7CF2091840030918500E09121
:1005200001018E2FEE0F990BFC01EE0FFF1FE80F5C
:10053000F91FE55FFE4F81819281820F931F909397
:10054000890080938800E09101018E2FEE0F990BB6
:10055000FC01EE0FFF1FE80FF91FE55FFE4F8081E2
:1005600086FF11C0E09101018E2FEE0F990BFC0167
:10057000EE0FFF1FE80FF91FE55FFE4F808161E07E
:100580008F730E94A600FF91EF91DF91CF91BF91F1
:10059000AF919F918F917F916F915F914F913F911B
:1005A0002F910F900FBE0F901F90189580E49CE93B
:1005B00090938900809388008FEF80930101E3CFAF
:1005C000789484B5826084BD84B5816084BD85B52E
:1005D000826085BD85B5816085BD80916E0081603A
:1005E00080936E00109281008091810082608093E0
:1005F00081008091810081608093810080918000E2
:100600008160809380008091B10084608093B1000C
:100610008091B00081608093B00080917A00846006
:1006200080937A0080917A00826080937A00809132
:100630007A00816080937A0080917A00806880934C
:100640007A001092C100809132018C3008F042C0D3
:100650008AE00E94870080913201282F30E0F90162
:10066000EE0FFF1FE20FF31FE55FFE4F9081907CBE
:100670009A60908310923301109234012CE0622F23
:100680000E948E0490E0829FB001112430E020E0AF
:10069000AB01420F531FFA01EE0FFF1FE40FF51FCE
:1006A000E55FFE4F408146FD07C02F5F3F4F2C3076
:1006B000310571F70E94C801E09132018E2F90E060
:1006C000FC01EE0FFF1FE80FF91FE55FFE4F808171
:1006D0008064808380912F018C3008F042C08BE0D1
:1006E0000E94870080912F01282F30E0F901EE0F42
:1006F000FF1FE20FF31FE55FFE4F9081907C9B6030
:10070000908310923001109231012CE0622F0E94F0
:100710008E0490E0829FB001112430E020E0AB0114
:10072000420F531FFA01EE0FFF1FE40FF51FE55FA5
:10073000FE4F408146FD07C02F5F3F4F2C303105F3
:1007400071F70E94C801E0912F018E2F90E0FC010B
:10075000EE0FFF1FE80FF91FE55FFE4F80818064F9
:10076000808304EB10E080E0E82E80E0F82E109209
:10077000360110923501C0913501D0913601C53B4B
:10078000D10594F4BE0182E391E00E944C01BE01C8
:100790008FE291E00E944C010E9417012196D093B4
:1007A0003601C0933501E7CF109336010093350130
:1007B000C0913501D0913601D7FD12C0BE0182E350
:1007C00091E00E944C01BE018FE291E00E944C0139
:1007D0000E9417012197D0933601C0933501E8CFCD
:1007E000E114F10421F20E940000C1CF80910001C8
:1007F0008C3048F591E0980F90930001809332017E
:1008000090E0FC01EE0FFF1FE80FF91FE55FFE4FC0
:1008100088EB9BE092838183809100018C30B8F457
:1008200091E0980F9093000180932F0190E0FC01DC
:10083000EE0FFF1FE80FF91FE55FFE4F88EB9BE00F
:100840009283818308958FEF80933201E5CF8FEFFC
:1008500080932F010895052E97FB1EF400940E94AB
:10086000420457FD07D00E945D0407FC03D04EF4FC
:100870000C94420450954095309521953F4F4F4F31
:100880005F4F089590958095709561957F4F8F4F3C
:100890009F4F08950E947F04A59F900DB49F900DD7
:1008A000A49F800D911D11240895B7FF0C944A0454
:1008B0000E944A04821B930B0895A1E21A2EAA1BE0
:1008C000BB1BFD010DC0AA1FBB1FEE1FFF1FA21700
:1008D000B307E407F50720F0A21BB30BE40BF50BFD
:1008E000661F771F881F991F1A9469F76095709586
:1008F000809590959B01AC01BD01CF010895A29F09
:10090000B001B39FC001A39F700D811D1124911DE3
:10091000B29F700D811D1124911D0895991B79E0DE
:1009200004C0991F961708F0961B881F7A95C9F77F
:1009300080950895EE0FFF1F0590F491E02D099426
:04094000F894FFCF59
:00000001FF
