:100000000C9461000C9473000C9473000C947300B6
:100010000C9473000C9473000C9473000C94730094
:100020000C9473000C9473000C9473000C94730084
:100030000C9473000C9473000C9473000C94730074
:100040000C9431010C9473000C9473000C947300A5
:100050000C9473000C9473000C9473000C94730054
:100060000C9473000C94730000000000240027001F
:100070002A0000000000250028002B0000000000DE
:1000800023002600290004040404040404040202DA
:100090000202020203030303030301020408102007
:1000A0004080010204081020010204081020000012
:1000B0000008000201000003040700000000000027
:1000C000000011241FBECFEFD8E0DEBFCDBF21E07E
:1000D000A0E0B1E001C01D92A131B207E1F70E949A
:1000E0007B010C9463020C940000833081F028F4AF
:1000F000813099F08230A9F008958730A9F08830D6
:10010000C9F08430B1F4809180008F7D03C080916C
:1001100080008F7780938000089584B58F7784BDA9
:10012000089584B58F7DFBCF8091B0008F77809349
:10013000B00008958091B0008F7DF9CFCF93DF9309
:10014000282F30E0F901E255FF4F8491F901E6567E
:10015000FF4FD491F901EA57FF4FC491CC23A1F08E
:1001600081110E947500EC2FF0E0EE0FFF1FE458A4
:10017000FF4FA591B491EC91ED2381E090E009F45B
:1001800080E0DF91CF91089580E090E0FACF1F9357
:10019000CF93DF93282F30E0F901E255FF4F849190
:1001A000F901E656FF4FD491F901EA57FF4FC49188
:1001B000CC23A9F0162F81110E947500EC2FF0E0DE
:1001C000EE0FFF1FEE58FF4FA591B4918FB7F89433
:1001D000EC91111108C0D095DE23DC938FBFDF9125
:1001E000CF911F910895DE2BF8CFCF93DF9390E04E
:1001F000FC01E656FF4F24918A579F4FFC018491E2
:100200008823C9F090E0880F991FFC01E859FF4F3F
:10021000A591B491FC01EE58FF4FC591D4916111A5
:100220000DC09FB7F8948C91209582238C93888180
:10023000282328839FBFDF91CF910895623051F426
:100240009FB7F8943C91822F809583238C93E8810B
:100250002E2BEFCF8FB7F894EC912E2B2C938FBFD2
:10026000EACF1F920F920FB60F9211242F933F9354
:100270008F939F93AF93BF93809105019091060157
:10028000A0910701B09108013091040123E0230FF0
:100290002D3758F50196A11DB11D209304018093BF
:1002A000050190930601A0930701B0930801809186
:1002B000000190910101A0910201B091030101960A
:1002C000A11DB11D8093000190930101A093020133
:1002D000B0930301BF91AF919F918F913F912F9167
:1002E0000F900FBE0F901F90189526E8230F0296CF
:1002F000A11DB11DD2CF789484B5826084BD84B530
:10030000816084BD85B5826085BD85B5816085BD10
:1003100080916E00816080936E00109281008091C8
:100320008100826080938100809181008160809350
:100330008100809180008160809380008091B10075
:1003400084608093B1008091B00081608093B000A0
:1003500080917A00846080937A0080917A00826034
:1003600080937A0080917A00816080937A008091F6
:100370007A00806880937A001092C10061E08DE07D
:100380000E94F50062E085E00E94F50061E08BE0EC
:100390000E94F50060E08EE00E94F50010E4C0E0ED
:1003A000D0E02FB7F8948091050190910601A091BB
:1003B0000701B09108012FBF40910D0150910E012E
:1003C00060910F0170911001841B950BA60BB70B68
:1003D00084369105A105B10510F12FB7F8948091ED
:1003E000050190910601A0910701B09108012FBF6E
:1003F00080930D0190930E01A0930F01B093100113
:1004000085E00E949E00892B51F48DE00E949E00A1
:1004100061E0892B09F060E08DE00E94C700109335
:100420007C0080917A00806480937A0080917A00C9
:1004300086FDFCCF90917800809179002FB7F894D9
:1004400040910501509106016091070170910801EA
:100450002FBFC0900901D0900A01E0900B01F090ED
:100460000C014C195D096E097F094436510561057F
:10047000710518F1892798278927843F9140ECF06E
:100480002FB7F8948091050190910601A091070182
:10049000B09108012FBF8093090190930A01A093A6
:1004A0000B01B0930C018BE00E949E0061E0892B50
:1004B00009F060E08BE00E94C700209709F471CF3B
:0A04C0000E9400006ECFF894FFCFF9
:00000001FF
