:100000000C9462000C94F7020C94D0020C948A00B9
:100010000C948A000C948A000C948A000C948A0038
:100020000C948A000C948A000C948A000C948A0028
:100030000C948A000C948A000C948A000C948A0018
:100040000C9486020C948A000C9454020C942E0298
:100050000C948A000C948A000C948A000C948A00F8
:100060000C948A000C948A000000000023002600F3
:10007000290000000008000201000003040700003E
:1000800000000000000000000000250028002B00F8
:1000900000000000240027002A00040404040404D3
:1000A0000404020202020202030303030303010227
:1000B00004081020408001020408102001020408F6
:1000C0001020660411241FBECFEFD8E0DEBFCDBFE5
:1000D00011E0A0E0B1E0EAE7F9E002C005900D927E
:1000E000AA31B107D9F721E0AAE1B1E001C01D9220
:1000F000A83CB207E1F710E0C2E6D0E004C02197C7
:10010000FE010E94B504C136D107C9F70E941E0343
:100110000C94BB040C940000AF92BF92CF92DF927C
:10012000EF92FF920F931F93CF93DF936C017B01AC
:100130008B01040F151FEB015E01AE18BF08C0173D
:10014000D10759F06991D601ED91FC910190F081B0
:10015000E02DC6010995892B79F7C501DF91CF9173
:100160001F910F91FF90EF90DF90CF90BF90AF90D5
:100170000895FC01538D448D252F30E0842F90E0AD
:10018000821B930B541710F0CF9608950197089592
:10019000FC01918D828D981761F0A28DAE0FBF2F5B
:1001A000B11D5D968C91928D9F5F9F73928F90E0B1
:1001B00008958FEF9FEF0895FC01918D828D981720
:1001C00031F0828DE80FF11D858D90E008958FEF5D
:1001D0009FEF0895FC01918D228D892F90E0805C26
:1001E0009F4F821B91098F739927089583E291E0B5
:1001F0000E94EA0021E0892B09F420E0822F089573
:1002000080E090E0892B29F00E94F60081110C9487
:1002100000000895FC01A48DA80FB92FB11DA35AA9
:10022000BF4F2C91848D90E001968F739927848F16
:10023000A689B7892C93A089B1898C918370806439
:100240008C93938D848D981306C00288F389E02DDA
:1002500080818F7D80830895EF92FF920F931F938B
:10026000CF93DF93EC0181E0888F9B8D8C8D981369
:100270001AC0E889F989808185FF15C09FB7F89475
:10028000EE89FF896083E889F989808183708064C1
:1002900080839FBF81E090E0DF91CF911F910F910C
:1002A000FF90EF900895F62E0B8D10E00F5F1F4F1B
:1002B0000F731127E02E8C8D8E110CC00FB607FC2A
:1002C000FACFE889F989808185FFF5CFCE010E94B8
:1002D0000A01F1CFEB8DEC0FFD2FF11DE35AFF4F1B
:1002E000F0829FB7F8940B8FEA89FB898081806246
:1002F000CFCFCF93DF93EC01888D8823B9F0AA8903
:10030000BB89E889F9898C9185FD03C0808186FDD0
:100310000DC00FB607FCF7CF8C9185FFF2CF80811F
:1003200085FFEDCFCE010E940A01E9CFDF91CF9189
:100330000895833081F028F4813099F08230A9F05B
:1003400008958730A9F08830C9F08430B1F48091E5
:1003500080008F7D03C0809180008F778093800024
:10036000089584B58F7784BD089584B58F7DFBCFC4
:100370008091B0008F778093B00008958091B00095
:100380008F7DF9CF0895CF92DF92EF92FF920F9376
:100390001F93CF93DF932DE7C22E20E0D22EF601DC
:1003A000849139EBE32E30E0F32EF7010491C5EA96
:1003B000D0E0FE011491112309F44BC081110E9479
:1003C0009901E12FF0E0EE0FFF1FE859FF4FA591D3
:1003D000B4918C91082391E080E009F490E0092F1A
:1003E000182FF6018491F701E490FE01C491CC230B
:1003F000A1F081110E949901EC2FF0E0EE0FFF1F98
:10040000EA57FF4FA591B4918FB7F8949C91012BB7
:1004100019F1E094E922EC928FBF8091C001909194
:10042000C101A091C201B091C3010196A11DB11DEE
:100430008093C0019093C101A093C201B093C30106
:10044000DF91CF911F910F91FF90EF90DF90CF90B0
:10045000089510E000E0C5CFE92ADDCF1F920F928A
:100460000FB60F9211242F933F934F935F936F9387
:100470007F938F939F93AF93BF93EF93FF9383E209
:1004800091E00E940A01FF91EF91BF91AF919F917E
:100490008F917F916F915F914F913F912F910F902D
:1004A0000FBE0F901F9018951F920F920FB60F92CC
:1004B00011242F938F939F93EF93FF93E091330138
:1004C000F09134018081E0913901F0913A0182FD8F
:1004D0001BC0908180913C018F5F8F7320913D0103
:1004E000821741F0E0913C01F0E0ED5DFE4F958F09
:1004F00080933C01FF91EF919F918F912F910F90ED
:100500000FBE0F901F9018958081F4CF1F920F920D
:100510000FB60F9211242F933F938F939F93AF9316
:10052000BF9380911F0190912001A0912101B09172
:10053000220130911E0123E0230F2D3758F501963B
:10054000A11DB11D20931E0180931F0190932001D6
:10055000A0932101B093220180911A0190911B0177
:10056000A0911C01B0911D010196A11DB11D8093A8
:100570001A0190931B01A0931C01B0931D01BF9120
:10058000AF919F918F913F912F910F900FBE0F9040
:100590001F90189526E8230F0296A11DB11DD2CFFA
:1005A0001F920F920FB60F9211242F933F934F93E8
:1005B0005F936F937F938F939F93AF93BF93EF93CB
:1005C000FF93E0910201F09103010995FF91EF91F2
:1005D000BF91AF919F918F917F916F915F914F915B
:1005E0003F912F910F900FBE0F901F9018951F9263
:1005F0000F920FB60F9211242F933F934F935F9357
:100600006F937F938F939F93AF93BF93EF93FF93DA
:10061000E0910001F09101010995FF91EF91BF91E7
:10062000AF919F918F917F916F915F914F913F918A
:100630002F910F900FBE0F901F901895CF93DF93BF
:10064000CDB7DEB7A1970FB6F894DEBF0FBECDBF12
:10065000789484B5826084BD84B5816084BD85B59D
:10066000826085BD85B5816085BD80916E008160A9
:1006700080936E001092810080918100826080934F
:100680008100809181008160809381008091800051
:100690008160809380008091B10084608093B1007C
:1006A0008091B00081608093B00080917A00846076
:1006B00080937A0080917A00826080937A008091A2
:1006C0007A00816080937A0080917A0080688093BC
:1006D0007A001092C100E9EBF0E02491E5EAF0E045
:1006E0008491882399F090E0880F991FFC01E057CE
:1006F000FF4FA591B491FC01EA57FF4F859194916A
:100700008FB7F894EC91E22BEC938FBFE0EBF0E025
:100710002491ECE9F0E084918823C9F090E0880FFF
:10072000991FFC01E057FF4F45915491FC01EA5796
:10073000FF4FA591B4919FB7F894FA013081822FB1
:10074000809583238083EC91E22BEC939FBFE09113
:100750003301F091340182E08083E0912F01F09128
:1007600030011082E0913101F09132018FEC8083F1
:1007700010923B01E0913701F091380186E08083CF
:10078000E0913501F0913601808180618083E091B4
:100790003501F0913601808188608083E0913501D8
:1007A000F0913601808180688083E0913501F0917D
:1007B000360180818F7D808383EC91E090930101ED
:1007C0008093000180916900836080936900E89ABA
:1007D0008AE0882E912CA12CB12C90E0E92E90E09B
:1007E000F92E2FB7F89480911F0190912001A091CC
:1007F0002101B09122012FBF4091C4015091C50148
:100800006091C6017091C701841B950BA60BB70BB5
:10081000883E9340A105B10508F44CC02FB7F89469
:1008200080911F0190912001A0912101B09122019E
:100830002FBF8093C4019093C501A093C601B093CC
:10084000C7012091C0013091C1014091C201509176
:10085000C30119A28E010F5D1F4FCA01B901A50185
:1008600094010E949304605DF80162938F01211549
:1008700031054105510589F7309761F0019000205D
:10088000E9F73197AF01401B510BB80183E291E0CA
:100890000E948C0042E050E066E171E083E291E06A
:1008A0000E948C001092C0011092C1011092C201EE
:1008B0001092C301E114F10409F493CF0E94F600F1
:1008C000882309F48ECF0E9400008BCFE3E2F1E091
:1008D0001382128288EE93E0A0E0B0E084839583D7
:1008E000A683B78388E091E09183808385EC90E0D4
:1008F0009587848784EC90E09787868780EC90E0EA
:10090000918B808B81EC90E0938B828B82EC90E0DA
:10091000958B848B86EC90E0978B868B118E128E54
:10092000138E148E0895A1E21A2EAA1BBB1BFD0183
:100930000DC0AA1FBB1FEE1FFF1FA217B307E407BE
:10094000F50720F0A21BB30BE40BF50B661F771F16
:10095000881F991F1A9469F76095709580959095F6
:100960009B01AC01BD01CF010895EE0FFF1F059063
:0A097000F491E02D0994F894FFCFF4
:10097A00C201C201000000002C018C00B9007901FB
:0A098A00EA00C800DC000D0A0000BE
:00000001FF
