:100000000C945D000C94BA030C9493030C9485003B
:100010000C9485000C9485000C9485000C9485004C
:100020000C9485000C9485000C9485000C9485003C
:100030000C9485000C9485000C9485000C9485002C
:100040000C9449030C9485000C9417030C94F10252
:100050000C9485000C9485000C9485000C9485000C
:100060000C9485000C9485000000000024002700FB
:100070002A0000000000250028002B0004040404CE
:100080000404040402020202020203030303030342
:10009000010204081020408001020408102001021F
:1000A00004081020000000080002010000030407FB
:1000B0000000000000000000DA0511241FBECFEF91
:1000C000D8E0DEBFCDBF11E0A0E0B1E0E2E0F1E1B9
:1000D00002C005900D92AE37B107D9F722E0AEE726
:1000E000B1E001C01D92A233B207E1F710E0CDE507
:1000F000D0E004C02197FE010E947908CC35D107D9
:10010000C9F70E94E1030C947F080C9400008091D1
:1001100091019091920101969093920180939101A7
:100120000895AF92BF92CF92DF92EF92FF920F931A
:100130001F93CF93DF936C017B018B01040F151F7D
:10014000EB015E01AE18BF08C017D10759F06991E5
:10015000D601ED91FC910190F081E02DC601099549
:10016000892B79F7C501DF91CF911F910F91FF90F6
:10017000EF90DF90CF90BF90AF900895FC01538D2A
:10018000448D252F30E0842F90E0821B930B541771
:1001900010F0CF96089501970895FC01918D828DFE
:1001A000981761F0A28DAE0FBF2FB11D5D968C9197
:1001B000928D9F5F9F73928F90E008958FEF9FEFD6
:1001C0000895FC01918D828D981731F0828DE80F92
:1001D000F11D858D90E008958FEF9FEF0895FC014C
:1001E000918D228D892F90E0805C9F4F821B910919
:1001F0008F739927089585E991E00E94EF0021E02F
:10020000892B09F420E0822F089580E090E0892B6B
:1002100029F00E94FB0081110C9400000895FC015C
:10022000A48DA80FB92FB11DA35ABF4F2C91848D57
:1002300090E001968F739927848FA689B7892C93B4
:10024000A089B1898C91837080648C93938D848D07
:10025000981306C00288F389E02D80818F7D80830A
:100260000895EF92FF920F931F93CF93DF93EC01CA
:1002700081E0888F9B8D8C8D98131AC0E889F9894D
:10028000808185FF15C09FB7F894EE89FF89608350
:10029000E889F98980818370806480839FBF81E0D1
:1002A00090E0DF91CF911F910F91FF90EF90089513
:1002B000F62E0B8D10E00F5F1F4F0F731127E02EEE
:1002C0008C8D8E110CC00FB607FCFACFE889F98926
:1002D000808185FFF5CFCE010E940F01F1CFEB8D1C
:1002E000EC0FFD2FF11DE35AFF4FF0829FB7F894FA
:1002F0000B8FEA89FB8980818062CFCFCF93DF9318
:10030000EC01888D8823B9F0AA89BB89E889F9892D
:100310008C9185FD03C0808186FD0DC00FB607FC62
:10032000F7CF8C9185FFF2CF808185FFEDCFCE0195
:100330000E940F01E9CFDF91CF9108953FB7F89464
:1003400080917F0190918001A0918101B091820103
:1003500026B5A89B05C02F3F19F00196A11DB11D20
:100360003FBFBA2FA92F982F8827BC01CD01620F5C
:10037000711D811D911D42E0660F771F881F991F17
:100380004A95D1F708950895FC0101900020E9F7FE
:100390003197AF01481B590BBC0185E991E00C94E2
:1003A00091008F929F92AF92BF920F931F93CF9322
:1003B000DF93CDB7DEB7A1970FB6F894DEBF0FBEBF
:1003C000CDBF19A2423008F44AE08E010F5D1F4FE5
:1003D000842E912CB12CA12CA50194010E945708C8
:1003E000E62FB901CA01EA30F4F4E05DD801EE93DA
:1003F0008D01232B242B252B79F790E080E010979B
:1004000019F0CD010E94C401A1960FB6F894DEBF89
:100410000FBECDBFDF91CF911F910F91BF90AF90D5
:100420009F908F900895E95CE1CF4F925F926F9219
:100430007F928F929F92AF92BF92CF92DF92EF9274
:10044000FF920F931F93CF936B017C01742EAC012D
:100450009B010E943E08882399F086E191E0CF91AC
:100460001F910F91FF90EF90DF90CF90BF90AF90D2
:100470009F908F907F906F905F904F900C94C401ED
:1004800046015701E894B7F82FEF3FEF4FE75FE7DA
:10049000C501B4010E943E0881110DC02FEF3FEF4E
:1004A0004FE75FE7C501B4010E94740618161CF4FB
:1004B0008AE191E0D4CF2FEF3FEF4FE75FE4C70130
:1004C000B6010E94CC0718161CF48EE191E0C7CF4C
:1004D0002FEF3FEF4FE75FECC701B6010E947406B4
:1004E00087FDF3CF20E030E0A901C701B6010E94EB
:1004F000740610E000E087FF0AC06DE285E991E034
:100500000E9431018C01F7FAF094F7F8F094C0E002
:1005100060E070E080E09FE37C1641F020E030E096
:1005200040E251E40E947906CF5FF6CFA701960121
:100530000E9408062B013C010E94EB064B015C0166
:100540004AE00E94D1017C01E00EF11ECC23C1F1F2
:10055000C501B4010E941A079B01AC01C301B2019D
:100560000E9407064B015C016EE285E991E00E9462
:100570003101E80EF91EC15018F120E030E040E2F0
:1005800051E4C501B4010E94D1072B013C010E9436
:10059000EB064B01B12CA12C4AE0C501B4010E942D
:1005A000D101E80EF91EC501B4010E941A079B0192
:1005B000AC01C301B2010E9407064B015C01DBCF15
:1005C000C701CF911F910F91FF90EF90DF90CF90D7
:1005D000BF90AF909F908F907F906F905F904F9063
:1005E00008951F920F920FB60F9211242F933F93ED
:1005F0004F935F936F937F938F939F93AF93BF932B
:10060000EF93FF9385E991E00E940F01FF91EF9135
:10061000BF91AF919F918F917F916F915F914F911A
:100620003F912F910F900FBE0F901F9018951F9222
:100630000F920FB60F9211242F938F939F93EF93E6
:10064000FF93E091A501F091A6018081E091AB01BB
:10065000F091AC0182FD1BC090818091AE018F5F53
:100660008F732091AF01821741F0E091AE01F0E06D
:10067000EB56FE4F958F8093AE01FF91EF919F91C6
:100680008F912F910F900FBE0F901F901895808122
:10069000F4CF1F920F920FB60F9211242F933F9316
:1006A0008F939F93AF93BF93809183019091840127
:1006B000A0918501B091860130917E0123E0230F46
:1006C0002D3758F50196A11DB11D20937E01809311
:1006D000830190938401A0938501B093860180915A
:1006E0007F0190918001A0918101B09182010196DA
:1006F000A11DB11D80937F0190938001A093810182
:10070000B0938201BF91AF919F918F913F912F91B3
:100710000F900FBE0F901F90189526E8230F02969A
:10072000A11DB11DD2CF1F920F920FB60F921124AF
:100730002F933F934F935F936F937F938F939F93E9
:10074000AF93BF93EF93FF93E0910201F091030108
:100750000995FF91EF91BF91AF919F918F917F91FB
:100760006F915F914F913F912F910F900FBE0F901E
:100770001F9018951F920F920FB60F9211242F936E
:100780003F934F935F936F937F938F939F93AF9319
:10079000BF93EF93FF93E0910001F0910101099560
:1007A000FF91EF91BF91AF919F918F917F916F9149
:1007B0005F914F913F912F910F900FBE0F901F901F
:1007C0001895789484B5826084BD84B5816084BDB9
:1007D00085B5826085BD85B5816085BD80916E00DF
:1007E000816080936E001092810080918100826010
:1007F000809381008091810081608093810080914D
:1008000080008160809380008091B100846080933B
:10081000B1008091B00081608093B00080917A0037
:10082000846080937A0080917A00826080937A005D
:1008300080917A00816080937A0080917A0080684C
:1008400080937A001092C10042E950E0FA0164916D
:100850008EE790E0FC0124912223C1F030E0220FCA
:10086000331FF901E859FF4FA591B491F901EE58F2
:10087000FF4FC591D4917FB7F8943C91262F2095D6
:1008800032233C933881232328837FBFE6EAF0E0BC
:100890002491FA014491FC0194919923D9F02223E7
:1008A00059F0233009F46FC108F062C1213009F416
:1008B00070C1223009F471C1E92FF0E0EE0FFF1F83
:1008C000EE58FF4FA591B4918FB7F8949C91492BA6
:1008D0004C938FBFE091A501F091A60182E0808347
:1008E000E091A101F091A2011082E091A301F091A9
:1008F000A4018FEC80831092AD01E091A901F091E9
:10090000AA0186E08083E091A701F091A80180818F
:1009100080618083E091A701F091A80180818860C7
:100920008083E091A701F091A80180818068808395
:10093000E091A701F091A80180818F7D8083C7E8B5
:10094000D0E09CE3D92E05E010E020E0E22E20E08C
:10095000F22E60919301709194016F5F7F4F7093BD
:1009600094016093930190E080E04AE00E94D101FD
:1009700082E291E00E94C4011092870110928801E6
:100980001092890110928A0110928B0110928C01B1
:1009900010928D0110928E0110929201109291018D
:1009A000D0930101C093000180916900836080931E
:1009B0006900E89A2FB7F89480918301909184019F
:1009C000A0918501B09186012FBF88579C4EAF4FF3
:1009D000BF4F2FB7F89440918301509184016091EB
:1009E0008501709186012FBF481759076A077B0759
:1009F00080F389E391E00E94C40186E491E00E94C3
:100A0000C40189E491E00E94C40160919101709158
:100A1000920190E080E04AE00E94D10183E591E0FC
:100A20000E94C4012091910130919201D29EC00197
:100A3000D39E900D1124B8010E9443087093900139
:100A400060938F0190E080E04AE00E94D1018CE544
:100A500091E00E94C40160918F017091900190E03B
:100A600080E00E941A0726E338EE46E654E40E942E
:100A7000D10720E030E040E752E40E94790620E010
:100A800030E04AE754E40E94790660938B0170934A
:100A90008C0180938D0190938E0142E00E9415029B
:100AA0008CE691E00E94C40160918F0170919001E9
:100AB00090E080E00E941A0726E338EE46E654E410
:100AC0000E94D10720E030E040E752E40E9479061E
:100AD00020E030E04AE754E40E94790626E636E654
:100AE00046E650E40E94D107609387017093880125
:100AF0008093890190938A0142E00E94150284E765
:100B000091E00E94C40186E491E00E94C4010E9429
:100B10009E012B013C0180ED882E87E0982EA12CB0
:100B2000B12C0E949E016419750986099709683ED7
:100B3000734081059105A8F3F1E08F1A9108A1088F
:100B4000B10828EE420E23E0521E611C711C811474
:100B50009104A104B10429F7E114F10409F4F9CED8
:100B60000E94FB00882309F4F4CE0E940000F1CE1D
:100B70002730B1F02830D1F0243009F09DCE80919B
:100B800080008F7D03C0809180008F7780938000EC
:100B900093CE84B58F7784BD8FCE84B58F7DFBCF08
:100BA0008091B0008F778093B00086CE8091B000A6
:100BB0008F7DF9CFE5E9F1E01382128288EE93E0B0
:100BC000A0E0B0E084839583A683B78388E091E0BA
:100BD0009183808385EC90E09587848784EC90E016
:100BE0009787868780EC90E0918B808B81EC90E0FA
:100BF000938B828B82EC90E0958B848B86EC90E0DB
:100C0000978B868B118E128E138E148E08955058EA
:100C1000BB27AA270E941F060C9492070E948407F4
:100C200038F00E948B0720F039F49F3F19F426F426
:100C30000C9481070EF4E095E7FB0C947B07E92FF9
:100C40000E94A30758F3BA17620773078407950732
:100C500020F079F4A6F50C94C5070EF4E0950B2E60
:100C6000BA2FA02D0B01B90190010C01CA01A001FE
:100C70001124FF27591B99F0593F50F4503E68F159
:100C80001A16F040A22F232F342F4427585FF3CF9A
:100C9000469537952795A795F0405395C9F77EF46B
:100CA0001F16BA0B620B730B840BBAF09150A1F0B4
:100CB000FF0FBB1F661F771F881FC2F70EC0BA0F3A
:100CC000621F731F841F48F4879577956795B795C2
:100CD000F7959E3F08F0B0CF9395880F08F09927BD
:100CE000EE0F9795879508950E94570708F481E0C5
:100CF00008950E948D060C9492070E948B0758F06D
:100D00000E94840740F029F45F3F29F00C947B0790
:100D100051110C94C6070C9481070E94A30768F335
:100D20009923B1F3552391F3951B550BBB27AA27A4
:100D300062177307840738F09F5F5F4F220F331FDE
:100D4000441FAA1FA9F335D00E2E3AF0E0E832D0A6
:100D500091505040E695001CCAF72BD0FE2F29D0A9
:100D6000660F771F881FBB1F261737074807AB077B
:100D7000B0E809F0BB0B802DBF01FF2793585F4FF0
:100D80003AF09E3F510578F00C947B070C94C6070F
:100D90005F3FE4F3983ED4F3869577956795B795D2
:100DA000F7959F5FC9F7880F911D9695879597F9DD
:100DB0000895E1E0660F771F881FBB1F6217730756
:100DC0008407BA0720F0621B730B840BBA0BEE1F6B
:100DD00088F7E09508950E94AB0788F09F5798F038
:100DE000B92F9927B751B0F0E1F0660F771F881F30
:100DF000991F1AF0BA95C9F714C0B13091F00E944A
:100E0000C507B1E008950C94C507672F782F882790
:100E1000B85F39F0B93FCCF3869577956795B39570
:100E2000D9F73EF490958095709561957F4F8F4FDF
:100E30009F4F0895E89409C097FB3EF490958095E4
:100E4000709561957F4F8F4F9F4F9923A9F0F92F90
:100E500096E9BB279395F695879577956795B7950E
:100E6000F111F8CFFAF4BB0F11F460FF1BC06F5FF4
:100E70007F4F8F4F9F4F16C0882311F096E911C006
:100E8000772321F09EE8872F762F05C0662371F027
:100E900096E8862F70E060E02AF09A95660F771F3B
:100EA000881FDAF7880F9695879597F90895990F17
:100EB0000008550FAA0BE0E8FEEF16161706E80724
:100EC000F907C0F012161306E407F50798F0621B45
:100ED000730B840B950B39F40A2661F0232B242B1A
:100EE000252B21F408950A2609F4A140A6958FEF39
:100EF000811D811D089597F99F6780E870E060E08B
:100F000008959FEF80EC089500240A9416161706A2
:100F100018060906089500240A94121613061406EA
:100F200005060895092E0394000C11F4882352F04D
:100F3000BB0F40F4BF2B11F460FF04C06F5F7F4F05
:100F40008F4F9F4F089557FD9058440F551F59F0EC
:100F50005F3F71F04795880F97FB991F61F09F3FA6
:100F600079F087950895121613061406551FF2CFCF
:100F70004695F1DF08C0161617061806991FF1CF1F
:100F800086957105610508940895E894BB27662746
:100F90007727CB0197F908950E94570708F48FEF40
:100FA00008950E94E4070C9492070E94840738F089
:100FB0000E948B0720F0952311F00C947B070C9472
:100FC000810711240C94C6070E94A30770F3959F14
:100FD000C1F3950F50E0551F629FF001729FBB2730
:100FE000F00DB11D639FAA27F00DB11DAA1F649FCC
:100FF0006627B00DA11D661F829F2227B00DA11D7F
:10100000621F739FB00DA11D621F839FA00D611D04
:10101000221F749F3327A00D611D231F849F600D25
:10102000211D822F762F6A2F11249F5750409AF04E
:10103000F1F088234AF0EE0FFF1FBB1F661F771FDA
:10104000881F91505040A9F79E3F510580F00C94A5
:101050007B070C94C6075F3FE4F3983ED4F3869574
:1010600077956795B795F795E7959F5FC1F7FE2B45
:10107000880F911D9695879597F908950E945707B7
:10108000880B990B0895AA1BBB1B51E107C0AA1F2F
:10109000BB1FA617B70710F0A61BB70B881F991F19
:1010A0005A95A9F780959095BC01CD010895A1E2CC
:1010B0001A2EAA1BBB1BFD010DC0AA1FBB1FEE1FD2
:1010C000FF1FA217B307E407F50720F0A21BB30B1D
:1010D000E40BF50B661F771F881F991F1A9469F799
:1010E00060957095809590959B01AC01BD01CF01F5
:1010F0000895EE0FFF1F0590F491E02D0994F894E8
:02110000FFCF1F
:10110200C301C3010000000031019100BE007E0155
:10111200EF00CD00E1006E616E00696E66006F76D1
:1011220066003A205374617274206D656173757242
:10113200656D656E742E2E2E0020202066696E6904
:10114200736865642E000D0A00436F756E746572D4
:101152003A20003B202052504D3A20003B2020579D
:10116200696E642073706565643A2000205B6D2FA0
:0E117200735D2000205B6B6D2F685D20000018
:00000001FF
